:020000040800F2
:100000000000082495130008B5120008B712000874
:10001000B9120008BB120008BD1200080000000061
:10002000000000000000000000000000BF120008F7
:10003000C112000800000000C3120008C512000829
:10004000E5130008E5130008E5130008E5130008B0
:10005000E5130008E5130008E5130008E5130008A0
:10006000E5130008E5130008E5130008CD120008A9
:10007000E5130008E5130008E5130008E513000880
:10008000E5130008E5130008E5130008E513000870
:10009000E5130008E5130008E5130008E513000860
:1000A000E5130008E5130008E5130008E513000850
:1000B000E5130008E5130008E5130008E513000840
:1000C000E5130008E5130008E5130008E513000830
:1000D000E5130008E5130008E5130008E513000820
:1000E000E5130008E513000800000000E513000810
:1000F000E5130008E5130008E5130008E513000800
:10010000E5130008E5130008E5130008E5130008EF
:10011000E5130008E5130008E5130008E5130008DF
:10012000E5130008E5130008E5130008E5130008CF
:10013000E5130008E5130008E5130008E5130008BF
:1001400000000000000000000000000000000000AF
:10015000E5130008E5130008E5130008E51300089F
:10016000E5130008E5130008E5130008E51300088F
:10017000E5130008E5130008E5130008E51300087F
:10018000E5130008E5130008E5130008E51300086F
:10019000E5130008E5130008E5130008E51300085F
:1001A000E5130008E5130008E5130008E51300084F
:1001B000E5130008E5130008E5130008E51300083F
:1001C000E5130008E5130008E5130008E51300082F
:1001D000E5130008E5130008E5130008E51300081F
:1001E000E5130008E5130008E5130008E51300080F
:1001F000E5130008E5130008E5130008E5130008FF
:10020000E5130008E5130008E5130008E5130008EE
:10021000E5130008E5130008E5130008E5130008DE
:10022000E5130008E5130008E513000800000000CE
:10023000E5130008E513000800000000E5130008BE
:10024000E5130008E5130008E5130008E5130008AE
:10025000E5130008E5130008E5130008E51300089E
:10026000E5130008E5130008E5130008E51300088E
:10027000E5130008E5130008E5130008000000007E
:10028000E5130008E5130008E5130008000000006E
:0802900000000000E513000866
:1002980080F0004002E000BF81F0004142001FBF33
:1002A8005FEA410392EA030F7FEA226C7FEA236C3C
:1002B8006AD04FEA1262D2EB1363C1BFD218414031
:1002C80048404140B8BF5B42192B88BF704710F0C7
:1002D800004F40F4000020F07F4018BF404211F06A
:1002E800004F41F4000121F07F4118BF494292EAD2
:1002F800030F3FD0A2F1010241FA03FC10EB0C00FE
:10030800C3F1200301FA03F100F0004302D549428A
:1003180060EB4000B0F5000F13D3B0F1807F06D337
:1003280040084FEA310102F10102FE2A51D2B1F12F
:10033800004F40EBC25008BF20F0010040EA030024
:100348007047490040EB0000013A28BFB0F5000FA4
:10035800EDD2B0FA80FCACF1080CB2EB0C0200FA5A
:100368000CF0AABF00EBC25052421843BCBFD040A9
:100378001843704792F0000F81F4000106BF80F423
:1003880000000132013BB5E74FEA41037FEA226CE6
:1003980018BF7FEA236C21D092EA030F04D092F0B1
:1003A800000F08BF0846704790EA010F1CBF0020E5
:1003B800704712F07F4F04D1400028BF40F0004042
:1003C800704712F100723CBF00F50000704700F062
:1003D800004343F0FE4040F4000070477FEA226289
:1003E80016BF08467FEA23630146420206BF5FEA5A
:1003F800412390EA010F40F4800070474FF000035A
:1004080004E000BF10F0004348BF40425FEA000C20
:1004180008BF704743F0964301464FF000001CE0C8
:1004280050EA010208BF70474FF000030AE000BF1E
:1004380050EA010208BF704711F0004302D540425C
:1004480061EB41015FEA010C02BF844601460020CE
:1004580043F0B64308BFA3F18053A3F50003BCFAE9
:100468008CF2083AA3EBC25310DB01FA02FC634496
:1004780000FA02FCC2F12002BCF1004F20FA02F29D
:1004880043EB020008BF20F00100704702F1200290
:1004980001FA02FCC2F1200250EA4C0021FA02F2F1
:1004A80043EB020008BF20EADC7070474FF0FF0CF6
:1004B8001CEAD0521EBF1CEAD15392EA0C0F93EAF1
:1004C8000C0F6FD01A4480EA010C400218BF5FEA93
:1004D80041211ED04FF0006343EA501043EA511106
:1004E800A0FB01310CF00040B1F5000F3EBF490000
:1004F80041EAD3715B0040EA010062F17F02FD2A04
:100508001DD8B3F1004F40EBC25008BF20F00100E6
:10051800704790F0000F0CF0004C08BF49024CEAFD
:10052800502040EA51207F3AC2BFD2F1FF0340EA8F
:10053800C250704740F400004FF00003013A5DDC00
:1005480012F1190FDCBF00F000407047C2F1000241
:10055800410021FA02F1C2F1200200FA02FC5FEA2E
:10056800310040F1000053EA4C0308BF20EADC7078
:10057800704792F0000F00F0004C02BF400010F4EA
:10058800000F013AF9D040EA0C0093F0000F01F097
:10059800004C02BF490011F4000F013BF9D041EAB9
:1005A8000C018FE70CEAD15392EA0C0F18BF93EABB
:1005B8000C0F0AD030F0004C18BF31F0004CD8D1E5
:1005C80080EA010000F00040704790F0000F17BF6C
:1005D80090F0004F084691F0000F91F0004F14D0B2
:1005E80092EA0C0F01D142020FD193EA0C0F03D10A
:1005F8004B0218BF084608D180EA010000F000400D
:1006080040F0FE4040F40000704740F0FE4040F4E7
:10061800400070474FF0FF0C1CEAD0521EBF1CEA86
:10062800D15392EA0C0F93EA0C0F69D0A2EB0302A4
:1006380080EA010C49024FEA402037D04FF080533E
:1006480043EA111143EA10130CF000408B4238BF03
:100658005B0042F17D024FF4000C8B4224BF5B1A11
:1006680040EA0C00B3EB510F24BFA3EB510340EA5F
:100678005C00B3EB910F24BFA3EB910340EA9C000D
:10068800B3EBD10F24BFA3EBD10340EADC001B017D
:1006980018BF5FEA1C1CE0D1FD2A3FF650AF8B4221
:1006A80040EBC25008BF20F0010070470CF0004C2E
:1006B8004CEA50207F32C2BFD2F1FF0340EAC25059
:1006C800704740F400004FF00003013A37E792F01A
:1006D800000F00F0004C02BF400010F4000F013A78
:1006E800F9D040EA0C0093F0000F01F0004C02BF73
:1006F800490011F4000F013BF9D041EA0C0195E7DC
:100708000CEAD15392EA0C0F08D142027FF47DAF74
:1007180093EA0C0F7FF470AF084676E793EA0C0F64
:1007280004D14B023FF44CAF08466EE730F0004C62
:1007380018BF31F0004CCAD130F000427FF45CAFF2
:1007480031F000437FF43CAF5FE700BF42000ED2B8
:10075800B2F1FE4F0BD34FF09E03B3EB126209D4F4
:100768004FEA002343F0004323FA02F070474FF0AA
:100778000000704712F1610F01D1420202D14FF01F
:10078800FF3070474FF00000704700BF844641EAD1
:10079800000313F003036DD1403A41D351F8043BF1
:1007A80040F8043B51F8043B40F8043B51F8043B43
:1007B80040F8043B51F8043B40F8043B51F8043B33
:1007C80040F8043B51F8043B40F8043B51F8043B23
:1007D80040F8043B51F8043B40F8043B51F8043B13
:1007E80040F8043B51F8043B40F8043B51F8043B03
:1007F80040F8043B51F8043B40F8043B51F8043BF3
:1008080040F8043B51F8043B40F8043B51F8043BE2
:1008180040F8043B51F8043B40F8043B403ABDD251
:10082800303211D351F8043B40F8043B51F8043BF3
:1008380040F8043B51F8043B40F8043B51F8043BB2
:1008480040F8043B103AEDD20C3205D351F8043B82
:1008580040F8043B043AF9D2043208D0D2071CBF4E
:1008680011F8013B00F8013B01D30B880380604677
:10087800704700BF082A13D38B078DD010F00303ED
:100888008AD0C3F10403D21ADB071CBF11F8013B5D
:1008980000F8013B80D331F8023B20F8023B7BE7AC
:1008A800043AD9D3013A11F8013B00F8013BF9D2D7
:1008B8000B7803704B7843708B7883706046704771
:1008C80010B5054C237833B9044B13B10448AFF382
:1008D80000800123237010BD1400002400000000D4
:1008E800684D000808B5034B1BB103490348AFF333
:1008F800008008BD0000000018000024684D0008B2
:100908002DE9F04F91B00BAD00240B940C940D948D
:100918000E940F948E4BD3F8E02042F48072C3F803
:10092800E020D3F8E02002F480720092009AD3F815
:10093800E02042F00202C3F8E020D3F8E02002F001
:1009480002020192019AD3F8E02042F48062C3F8CF
:10095800E020D3F8E02002F480620292029AD3F8F1
:10096800E02042F04002C3F8E020D3F8E02002F093
:1009780040020392039AD3F8E02042F00402C3F83D
:10098800E020D3F8E02002F004020492049AD3F89D
:10099800E02042F00102C3F8E020D3F8E02002F0A2
:1009A80001020592059AD3F8E02042F40072C3F8D8
:1009B800E020D3F8E02002F400720692069AD3F8F9
:1009C800E02042F00802C3F8E020D3F8E02002F06B
:1009D80008020792079AD3F8E02042F08002C3F891
:1009E800E020D3F8E02002F080020892089AD3F8B9
:1009F800E02042F01002C3F8E020D3F8E02002F033
:100A080010020992099AD3F8E02042F02002C3F8B4
:100A1800E020D3F8E03003F020030A930A9B4D4FFF
:100A280022465021384601F0B9FF4B4E224660213C
:100A3800304601F0B3FF4FF0500BCDF82CB0112326
:100A48000C930D940E942946384601F093FE6023CA
:100A58000B9301230C930D940E942946304601F014
:100A680089FE4FF400730B9302270C970D940E9494
:100A78004FF00D09CDF83C902946384801F07AFE30
:100A88004FF6FF730B930C940D942946344801F0EC
:100A980071FE4FF45C430B930C970D940E94CDF8B4
:100AA8003C9029462F4801F065FE4FF4C0530B9344
:100AB8000C970D940E940A230F93DFF8AC80294607
:100AC800404601F057FE22230B930C940D942946BF
:100AD800404601F04FFE4FF440630B934FF0120A6B
:100AE800CDF830A00D940E9404220F92294630467A
:100AF80001F040FECDF82CB00C970D940E94CDF873
:100B08003C902946404601F035FE4FF400630B93B4
:100B18000C940D9408F540682946404601F02AFED9
:100B28004FF440570B97CDF830A00D940E94042243
:100B38000F922946404601F01DFE0B970C940123A5
:100B48000D932946304601F015FE11B0BDE8F08F2F
:100B580000440258002002580004025800180258A5
:100B680000080258001C02580000025800B583B063
:100B78000B4BD3F8D82042F00102C3F8D820D3F8A1
:100B8800D83003F001030193019B002211460B208A
:100B980000F0E6FC0B2000F0F3FC03B05DF804FB6A
:100BA8000044025872B6FEE708B51448144B0360B7
:100BB80000238360C360037443748374102242610A
:100BC800012282610221C161016242628262C262C3
:100BD800026343638363C3630364042242648364DC
:100BE800C264036542658365C365036643668266BE
:100BF80001F076FC00B908BDFFF7D4FFD00100244E
:100C080000A0004010B588B001A9002301934B60F3
:100C18008B60CB600B614B618B610F480F4A0260A0
:100C2800012242608360C360102202614024446153
:100C380080248461C36103624362836201920292E9
:100C48000392049205920692079203F0E3FC08B916
:100C580008B010BDFFF7A6FF300000244041005245
:100C680010B59AB03424224600210DEB040003F09D
:100C78009BFF22460021684603F096FF3248334B1B
:100C88000360002343608360C360036107224261FD
:100C9800032282610E22C2610522026240F28E2284
:100CA800426240F2E51282624FF42572C26240F25B
:100CB800E712026380F8343080F8353080F8363037
:100CC80001F054FF002838D100220D920E920F92A5
:100CD80010921192129213924FF480631493052389
:100CE80015931692179218928DF864208DF8652046
:100CF8008DF866200DA9144801F0B4FFF8B9002357
:100D080000930193029303930493059306934FF47E
:100D1800806207920522089209930A930B938DF833
:100D280030308DF831308DF832300122694606486E
:100D380001F098FF28B91AB010BDFFF733FFFFF78D
:100D480031FFFFF72FFF00BF2801002400100050DB
:100D580000B589B000230493059306930793019384
:100D68000293039314484FF080420260436083600B
:100D7800C3600361836103F057FDB0B94FF40053BA
:100D88000493002305930693079304A90A4803F0E4
:100D980087FD60B900230193039301A9064803F076
:100DA8001BFE30B909B05DF804FBFFF7FBFEFFF747
:100DB800F9FEFFF7F7FE00BFDC00002400B59DB088
:100DC8004C22002109A803F0EFFE2022002101A8EF
:100DD80003F0EAFE022001F079FF00230093254B7F
:100DE800DA6A22F00102DA62DB6A03F00103009397
:100DF800214A936923F4404343F480439361936900
:100E080003F440430093009B1B4B9B6913F4005F62
:100E1800FAD00223099301220C9240220D921293D8
:100E280000221392042014900C2115911693179008
:100E3800189319911A924FF480531B9309A801F043
:100E48006FFF90B93F230193032302930023039379
:100E580004930593069307930893022101A802F0CF
:100E6800C9FB20B91DB05DF804FBFFF79BFEFFF737
:100E780099FE00BF000400580048025810B582B01F
:100E880000F0D6FAFFF79AFFFFF73AFDFFF76EFE7C
:100E9800FFF78AFEFFF7B6FEFFF7E2FEFFF758FFFF
:100EA8000C4C01221021204601F078FD012240213E
:100EB800204601F073FD002301934FF050410723B2
:100EC8000B80ADF80230012301AA034803F0CAFBE6
:100ED800E6E700BF00200258300000242DE9F04169
:100EE800B8B0002333933493359336933793354B07
:100EF8001B6813B138B0BDE8F081324B01221A608B
:100F080002ACC0220021204603F04EFE4FF0807252
:100F18000023CDE90223204602F0BEFD00284ED171
:100F2800294BD3F8D42042F48052C3F8D420D3F804
:100F3800D43003F480530193019B4FF681733393AC
:100F48004FF00208CDF8D080002735970326369653
:100F58000C25379533AC21461C4801F00BFC48F2B0
:100F680033133393CDF8D08035973696379521468D
:100F7800174801F0FFFB4CF203733393CDF8D08090
:100F88003597369637952146124801F0F3FB4FF610
:100F98003F033393CDF8D080359736963795214661
:100FA8000D4801F0E7FBE0233393CDF8D080359767
:100FB800369637952146094801F0DCFB9AE7FFF79A
:100FC800F1FDADE7700200240044025800100258F9
:100FD80000180258000C025800140258001C02584D
:100FE80082B0074BD3F8F42042F00202C3F8F42091
:100FF800D3F8F43003F002030193019B02B0704769
:101008000044025810B5B8B0044600213391349119
:10101800359136913791C02202A803F0C5FD2268A8
:101028001D4B9A4201D038B010BD4FF40042002346
:10103800CDE902234FF080531E9302A802F02CFD45
:1010480038BB164BD3F8EC2042F48072C3F8EC207E
:10105800D3F8EC2002F480720092009AD3F8E020D2
:1010680042F00202C3F8E020D3F8E03003F00203B4
:101078000193019B4FF4407333930223349300236D
:10108800359336930923379333A9054801F072FB4A
:10109800C9E7FFF787FDD4E700A0004000440258E5
:1010A80000040258F0B5BDB00446002137913891CC
:1010B80039913A913B91C02206A803F075FD226848
:1010C800454B9A4201D03DB0F0BD4FF0005200238D
:1010D800CDE90623012310930423119302231293CD
:1010E8001393062314934FF44063159306A802F054
:1010F800D3FC00286CD1394BD3F8E42042F0080225
:10110800C3F8E420D3F8E42002F008020192019A1F
:10111800D3F8E02042F48062C3F8E020D3F8E0205E
:1011280002F480620292029AD3F8E02042F48072BC
:10113800C3F8E020D3F8E02002F480720392039A07
:10114800D3F8E02042F40072C3F8E020D3F8E0209E
:1011580002F400720492049AD3F8E02042F080026C
:10116800C3F8E020D3F8E03003F080030593059B33
:10117800FC23379302273897002439943A940E2693
:101188003B9637AD2946164801F0F4FA4DF2032391
:101198003793389739943A943B962946114801F089
:1011A800E9FA4FF6FB533793389739943A943B96BC
:1011B80029460D4801F0DEFA4FF408533793389763
:1011C80039943A943B962946084801F0D3FA7AE7CD
:1011D800FFF7E8FC8FE700BF0010005000440258FA
:1011E800002802580020025800240258001C025807
:1011F80010B588B0002303930493059306930793CF
:101208000368B3F1804F01D008B010BD0446214BEC
:10121800D3F8E82042F00102C3F8E820D3F8E82028
:1012280002F001020192019AD3F8E02042F0010293
:10123800C3F8E020D3F8E03003F001030293029BE7
:101248000123039302220492079303A9124801F091
:1012580091FA1248124B03601623436000238360FF
:10126800C3604FF4806202614FF4006242614FF440
:10127800005282614FF48072C2610362436200F0DF
:10128800D3FA18B9054B23629C63BDE7FFF78AFCC4
:10129800F8E700BF00440258000002586400002428
:1012A8001000024008B5FFF719FE08BDFEE7FEE78B
:1012B800FEE7FEE7FEE770477047704708B500F0A5
:1012C800E5F808BD08B5024800F080FC08BD00BF7D
:1012D80064000024244B1B6803F00F03062B06D878
:1012E800214A136823F00F0343F0070313601F4BD1
:1012F8001A6842F001021A6000221A6119681C4A31
:101308000A401A60184B1B6813F0080F06D0164ADB
:10131800136823F00F0343F007031360134B0022F5
:101328009A61DA611A62134999621349D9621349B9
:1013380019635A639963DA6319645A64196821F462
:10134800802119601A660E4B1B686FF30F03B3F107
:10135800005F03D20B4B0122C3F808210A4B43F26A
:10136800D2021A60704700BF0020005200440258A1
:101378007FEDF6EA000202020000FF01800201018F
:101388000010005C0080005100400052DFF834D0AB
:10139800FFF7A0FF0C480D490D4A002302E0D4587E
:1013A800C4500433C4188C42F9D30A4A0A4C0023A7
:1013B80001E013600432A242FBD303F047FCFFF7BD
:1013C8005DFD70470000082400000024140000247C
:1013D800F84D00081400002410040024FEE7000063
:1013E800104B1B780BB90120704710B504464FF419
:1013F8007A70B0FBF3F30C4A1068B0FBF3F000F01E
:10140800C3F868B90F2C01D901200AE0002221464F
:101418004FF0FF3000F0A4F8044B1C60002000E0FF
:10142800012010BD08000024040000240C00002442
:1014380010B5032000F082F801F0CAFF0F498B694C
:10144800C3F303230E4AD35C03F01F03D8408B6910
:1014580003F00F03D35C03F01F0320FA03F3094AD8
:101468001360094B18600F20FFF7BAFF10B1012471
:10147800204610BD0446FFF7B3FDF9E700440258C3
:10148800CC4D00080000002404000024034B1B7806
:10149800034A11680B441360704700BF080000241A
:1014A80074020024014B1868704700BF74020024BE
:1014B800014B1868000C70470010005C002807DB1F
:1014C80000F01F02400901239340024A42F82030ED
:1014D800704700BF00E100E0002804DB0901C9B241
:1014E800044B1954704700F00F000901C9B2024BB0
:1014F8001954704700E400E014ED00E000B500F076
:101508000700C0F1070CBCF1040F28BF4FF0040C12
:10151800031D062B0FD9C31E4FF0FF3E0EFA0CF029
:1015280021EA000199400EFA03FE22EA0E0241EA7E
:1015380002005DF804FB0023EEE700000649CB68D3
:1015480023F4E0631B041B0C000200F4E060034377
:10155800024A1A43CA60704700ED00E00000FA052D
:1015680010B50446054BD868C0F30220FFF7C6FF44
:1015780001462046FFF7B0FF10BD00BF00ED00E0B8
:1015880008B5FFF79BFF08BD0138B0F1807F0BD28B
:101598004FF0E0235861054AF02182F8231000201B
:1015A800986107221A6170470120704700ED00E03A
:1015B80003682749274A934218BF8B422FD0183215
:1015C80093422CD01832934229D01832934226D015
:1015D8001832934223D01832934220D018329342C3
:1015E8001DD002F55672934219D01832934216D084
:1015F8001832934213D01832934210D018329342C3
:101608000DD0183293420AD01832934207D01832BC
:10161800934204D023F0FF038365806D704710B4B4
:10162800D9B210390C4AA2FB0142C2F302120B4C88
:10163800A25CC2655F2906D96FF309030433836589
:10164800806D10BC70476FF309038365F8E700BF2E
:101658001000024028000240ABAAAAAADC4D0008EC
:1016680083699BB9836A012B0AD0022B02D00BB184
:1016780000207047C36A13F0807F31D10020704783
:10168800C36AB3F1C07F2DD000207047B3F5005F67
:101698000AD0836A022B2DD9032B2DD1C36A13F0EC
:1016A800807F2BD100207047836A032B0AD801A2C0
:1016B80052F823F0F1160008D1160008F1160008B8
:1016C800DD16000800207047C36A13F0807F0DD133
:1016D80000207047C36AB3F1C07F09D0002070476B
:1016E8000120704701207047012070470120704792
:1016F8000120704701207047002070470120704783
:1017080003682149214A934218BF8B4227D01432DB
:10171800934224D01432934221D0143293421ED0E3
:10172800143293421BD01432934218D0143293428D
:1017380015D0DAB2103A1649A1FB0212120915495E
:101748001944A8291ED9144B13449B000366134B54
:10175800436602F01F020123934083667047DBB2A1
:10176800083B0F4AA2FB03230E4A02EB1312920016
:1017780002660D4A4266C3F30413012202FA03F318
:10178800836670470832DEE7085402581C54025832
:10179800ABAAAAAAF0FBFDBF008200108008024095
:1017A800CDCCCCCC009600168058025801794A1E40
:1017B800072A2BD830B40368154D164CA34218BF1E
:1017C800AB4218D01434A34215D01434A34212D01B
:1017D8001434A3420FD01434A3420CD01434A342BF
:1017E80009D01434A34206D00B4B0B449B00C366AC
:1017F8000A4B036705E00A4B0B449B00C366094B81
:10180800036701239340436730BC7047704700BFAC
:10181800085402581C5402583F82001040090240E4
:101828003F9600164059025870B50446FFF73AFE35
:10183800002C00F0B981054623685349534A934266
:1018480018BF8B420CBF0121002150D0183293429F
:101858004DD0183293424AD01832934247D01832AA
:10186800934244D01832934241D0183293423ED02A
:1018780002F5567293423AD01832934237D0183252
:10188800934234D01832934231D0183293422ED03A
:10189800183293422BD01832934228D018329342F0
:1018A80025D03B493B4A934218BF8B4200F0348114
:1018B800394A934200F030811432934200F02C816F
:1018C8001432934200F028811432934200F02481AC
:1018D8001432934200F020811432934200F01C81AC
:1018E80040236365032384F8353001204AE002224F
:1018F80084F83520002284F8342079BB274A9342A3
:101908002CD01832934229D01832934226D018325C
:10191800934223D01832934220D0183293421DD0DC
:1019280002F55672934219D01832934216D01832E3
:10193800934213D01832934210D0183293420DD0EC
:10194800183293420AD01832934207D01832934281
:1019580004D01A6822F001021A6003E01A6822F023
:1019680001021A6023681A6812F0010F18D0FFF7F5
:1019780099FD431B052BF5D920236365032384F8C0
:101988003530012070BD00BF100002402800024021
:10199800085402581C54025830540258400002405F
:1019A8001A6882491140A268E0680243206902432C
:1019B80060690243A0690243E0690243206A024366
:1019C8000A43616A042900F09880794909686FF32D
:1019D8000F01B1F1005F10D361682E2940F29280A7
:1019E80052290AD83F2908D33F39724820FA01F111
:1019F80011F0010F01D042F480121A60266875694F
:101A080025F00705636A1D43042B08D1A36A1D430B
:101A1800E36A23B12046FFF723FE002876D17561DB
:101A28002046FFF7C5FDE36D03F01F023F239340F7
:101A3800836023686049614A934218BF8B4242D051
:101A4800183293423FD0183293423CD01832934216
:101A580039D01832934236D01832934233D01832E4
:101A6800934230D002F5567293422CD018329342EA
:101A780029D01832934226D01832934223D01832F4
:101A8800934220D0183293421DD0183293421AD074
:101A98001832934217D04A4A934214D014329342D0
:101AA80011D0143293420ED0143293420BD0143218
:101AB800934208D01432934205D01432934202D094
:101AC8001432934213D12046FFF71AFEA368802BE5
:101AD8005DD0236E22791A60636EA26E5A606368C5
:101AE800013B072B56D90023E36623676367002071
:101AF8006065012384F8353044E7E16A206B0143CF
:101B08000A4362E72929FFF478AF74E74023636545
:101B1800012084F8350035E7022284F835200022B8
:101B280084F8342019686FF31011A268402A2CD069
:101B3800802A27D00022E06842EAD002206942EADF
:101B4800D002606942EAD002A06942EAD002E069A4
:101B580042EAD002206A42EA10120A431A60226856
:101B6800184B1344184AA2FB03231B099B00E36587
:101B78002046FFF71DFDE26D02F01F0101228A4099
:101B8800426056E74FF48042D5E71022D3E700239E
:101B980063609EE72046FFF709FEE36E00221A60A5
:101BA800236F626F5A60A2E70120EBE63F8010FEC8
:101BB8000010005C0F030F001000024028000240D4
:101BC80008540258F8ABFDA7CDCCCCCCF0B583B007
:101BD8000446002301937D4B1D687D4BA3FB05350F
:101BE800AD0A876D3E68D7F800C0036879497A481E
:101BF800834218BF8B420CBF0120002061D0774A76
:101C080093425ED0183293425BD01832934258D038
:101C18001832934255D01832934252D01832934218
:101C28004FD002F5567293424BD01832934248D0A7
:101C38001832934245D01832934242D01832934218
:101C48003FD0183293423CD01832934239D01832E0
:101C5800934236D06249634A934218BF8B4212D0EE
:101C6800614A93420FD0143293420CD014329342FB
:101C780009D01432934206D01432934203D014325E
:101C8800934240F05F821A68E16D01F01F01042061
:101C9800884010EA0C0F00F0A58212F0040F00F043
:101CA800A182786012F4004F00F0588212F4803F4D
:101CB80040F04E82A36C002B00F0448220469847E7
:101CC80040E2E26D02F01F0108228A40324241D010
:101CD80070BB424A93422BD01832934228D0183214
:101CE800934225D01832934222D0183293421FD003
:101CF800183293421CD002F55672934218D018320B
:101D0800934215D01832934212D0183293420FD012
:101D1800183293420CD01832934209D018329342A9
:101D280006D01832934203D01A68C2F3C00202E008
:101D38001A68C2F380026AB11A6822F004021A60B3
:101D4800E36D03F01F0208239340BB60636D43F00B
:101D580001036365E26D02F01F0226FA02F313F035
:101D6800010F47D023681B481B498B4218BF834289
:101D78003CD018318B4239D018318B4236D01831CB
:101D88008B4233D018318B4230D018318B422DD052
:101D980018318B422AD001F556718B4226D0183162
:101DA8008B4223D018318B4220D018318B421DD062
:101DB80018318B421AD018318B4217D018318B4208
:101DC80014D018318B4211D01B6813E00400002492
:101DD800B5814E1B1000024028000240400002401E
:101DE800085402581C540258305402585B6913F0C6
:101DF800800F3BD1E36D03F01F03042202FA03F3C3
:101E080033423FD02268954895498A4218BF82429A
:101E180034D018318A4231D018318A422ED0183144
:101E28008A422BD018318A4228D018318A4225D0CC
:101E380018318A4222D001F556718A421ED01831D3
:101E48008A421BD018318A4218D018318A4215D0DC
:101E580018318A4212D018318A420FD018318A427A
:101E68000CD018318A4209D013680BE00123934043
:101E7800BB60636D43F002036365BBE7126812F051
:101E8800020F3DD1E36D03F01F03102202FA03F3A2
:101E980033425FD02268714871498A4218BF824232
:101EA80034D018318A4231D018318A422ED01831B4
:101EB8008A422BD018318A4228D018318A4225D03C
:101EC80018318A4222D001F556718A421ED0183143
:101ED8008A421BD018318A4218D018318A4215D04C
:101EE80018318A4212D018318A420FD018318A42EA
:101EF8000CD018318A4209D01268C2F3800208E077
:101F0800BB60636D43F004036365BBE71268C2F30B
:101F1800C002FAB1BB6023681A6812F4802F0DD092
:101F28001B6813F4002F04D1236C9BB120469847FB
:101F380010E0A36C73B1204698470BE01A6812F4BE
:101F4800807F03D11A6822F008021A60236C0BB153
:101F580020469847E36D03F01F03202202FA03F39B
:101F6800334200F0918022683C483D498A4218BFBC
:101F780082422ED018318A422BD018318A4228D07A
:101F880018318A4225D018318A4222D018318A4223
:101F98001FD018318A421CD001F556718A4218D0D8
:101FA80018318A4215D018318A4212D018318A4223
:101FB8000FD018318A420CD018318A4209D0183112
:101FC8008A4206D018318A4203D01268C2F340020E
:101FD80002E01268C2F30012002A55D0BB6094F8E0
:101FE8003530042B0ED023681A6812F4802F39D0AC
:101FF8001B6813F4002F2CD1636C002B44D02046AF
:10200800984741E02268136823F01603136022689A
:10201800536923F080035361236CB3B122681368BA
:1020280023F008031360E36D03F01F023F2393407E
:10203800BB60012384F83530002384F83430236DE5
:10204800002B7FD0204698477CE0A36C002BE5D17D
:10205800E9E7E36BC3B12046984715E0100002405A
:10206800280002401A6812F4807F09D11A6822F009
:1020780010021A60012384F83530002384F83430C4
:10208800E36B0BB120469847636D002B5AD0636D04
:1020980013F0010F52D0042384F835302368964991
:1020A800964A934218BF8B422FD0183293422CD0B5
:1020B8001832934229D01832934226D018329342CC
:1020C80023D01832934220D0183293421DD002F503
:1020D8005672934219D01832934216D0183293424E
:1020E80013D01832934210D0183293420DD01832C0
:1020F80093420AD01832934207D01832934204D040
:102108001A6822F001021A6003E01A6822F001023C
:102118001A60019B01330193AB4204D823681B6802
:1021280013F0010FF5D123681B6813F0010F0BD0D2
:10213800032384F83530002384F83430E36C0BB182
:102148002046984703B0F0BD012384F83530F2E704
:10215800236C002BF6D020469847F3E712F0200FA7
:102168003AD123686449654A934218BF8B422FD0FD
:10217800183293422CD01832934229D01832934205
:1021880026D01832934223D01832934220D01832E6
:1021980093421DD002F55672934219D018329342D9
:1021A80016D01832934213D01832934210D01832F6
:1021B80093420DD0183293420AD01832934207D076
:1021C8001832934204D01A6822F004021A6003E01D
:1021D8001A6822F008021A60236C002BB2D020463D
:1021E8009847AFE70220884010EA0C0F60D012F041
:1021F800020F5DD0786012F4004F0ED012F4803FC9
:1022080005D1636C002B9DD0204698479AE7E36B75
:10221800002B97D02046984794E712F0200F40D122
:1022280023683549354A934218BF8B422FD018325C
:1022380093422CD01832934229D01832934226D098
:102248001832934223D01832934220D01832934246
:102258001DD002F55672934219D01832934216D007
:102268001832934213D01832934210D01832934246
:102278000DD0183293420AD01832934207D0183240
:10228800934204D01A6822F00A021A6003E01A681E
:1022980022F014021A60012384F83530002384F8F0
:1022A8003430E36B002B3FF44DAF2046984749E7A5
:1022B800082000FA01F111EA0C0F3FF443AF12F0C5
:1022C800080F3FF43FAF1A6822F00E021A60E36D60
:1022D80003F01F03012202FA03F37B60626584F8AE
:1022E8003520002384F83430E36C002B3FF42AAF08
:1022F8002046984726E700BF100002402800024009
:1023080010B4416B0468D4F88430724A134043EA2D
:102318008103C4F884300468D4F8843023F47F033C
:10232800D0F838C043EA0C43C4F88430836B0B44BC
:102338000468D4F88810114041EA8301C4F8881071
:102348000468D4F8881021F4FE01D0F83CC041EAB2
:102358000C41C4F88810C16B03EB41030468D4F83E
:10236800A010114041EA8301C4F8A0100468D4F811
:10237800A01021F4FE01D0F840C041EA0C41C4F895
:10238800A010016C446C04FB01330468D4F8B0104D
:10239800114041EA8301C4F8B0100468D4F8B010C1
:1023A80021F4FE01D0F848C041EA0C41C4F8B0104D
:1023B800816CC46C04FB01330468D4F8AC10114080
:1023C80041EA8301C4F8AC10016D446D04FB01338C
:1023D8000468D4F8F010114041EA8301C4F8F01001
:1023E8000468D4F8F01021F47C11D0F858C041EA00
:1023F8000C41C4F8F010816D03EB41030468D4F874
:10240800C0100A4042EA8303C4F8C0300268D2F818
:10241800C03023F47C13C16D43EA0143C2F8C030D5
:102428000268D2F8C03023F07C53016E43EA01639E
:10243800C2F8C030436B284A1A449200C266836BC4
:1024480002EB83030367C16B03EBC1034367016CB2
:10245800446C04FB01F103EB81038367816CC46C5A
:1024680004FB01F103EB8103C367016D446D04FBB9
:1024780001F103EB8103C0F88030816D03EBC103E8
:10248800C0F88430816EC46D01FB04FC03EB8C033F
:10249800C0F88830046E04FB01F103EB8103C0F837
:1024A80090300E498B420DD9D0F89C3043F0200370
:1024B800C0F89C30032380F89830012007E00023FF
:1024C80042F8043BD0F890309342F8D8002010BC72
:1024D800704700BF0300FFFF002B0010FCD3004033
:1024E80030B595B004464C22A04901A8FEF74EF934
:1024F800002C00F0388123689D4A934220D094F83C
:1025080098300BB32268936923F010039361FEF7A8
:10251800C9FF054623689A6912F0080F1AD0FEF71A
:10252800C1FF431B0A2BF5D9D4F89C3043F00103B3
:10253800C4F89C30032384F89830012015B030BDCE
:1025480003F580736360DAE784F899302046FEF774
:1025580059FDD7E79A6942F001029A61FEF7A2FF96
:10256800054623689A6912F0010F0FD1FEF79AFF0A
:10257800401B0A28F5D9D4F89C3043F00103C4F86D
:102588009C30032384F898300120D7E79A6942F0F9
:1025980002029A61237C012B40D02268936943F0A0
:1025A80040039361637C012B3ED02268936923F436
:1025B80080439361A37C012B3CD02268936943F448
:1025C800805393612268936923F44073A1680B4395
:1025D80093612268936923F0A403936122681369C5
:1025E80023F010031361E368012B29D0002B2CD0B2
:1025F800022B00F09B802268936943F0800393616B
:102608002268136943F010031361E368032B1CD19C
:102618002268936943F02003936116E02268936966
:1026280023F040039361BDE72268936943F4804334
:102638009361BFE72268936923F480539361C1E7EC
:102648002268936943F004039361A3695A1EE369FE
:10265800013B1B0243EA4263226A013A134362695F
:10266800013A216843EA0243CB61A368B3F5407F8E
:1026780062D0236E33B12268D2F8C030616E0B434A
:10268800C2F8C030E36D226ED3420DD02168D1F874
:10269800C83023F00703A26E14A800EB820252F898
:1026A8004C2C1343C1F8C830236C6BB12168D1F8A6
:1026B800BC3023F00703626C14A800EB820252F8C6
:1026C8004C2C1343C1F8BC30A36C73B12168D1F80A
:1026D800BC3023F07003E26C14A800EB820252F8BD
:1026E8004C2C43EA0213C1F8BC30236D73B1216846
:1026F800D1F8BC3023F4E063626D14A800EB8202C9
:1027080052F84C2C43EA0223C1F8BC302268184B1B
:102718009A4222D00023C4F89430C4F89C30012394
:1027280084F898302046FFF7EBFD07E722689369A5
:1027380043F02003936188E7A36A013BE26A013A08
:1027480043EA0223226B013A43EA0213626A013A1E
:10275800216843EA0243CB608BE76268936823F001
:1027680003039360D6E70120E8E600BF804D000828
:1027780000A0004070B582B000236EE085685E005E
:102788000324B44025EA0405CC68B4402C43846093
:10279800456825EA0C054C68C4F300149C402C439A
:1027A80044606DE0DD08083550F8254003F0070C5B
:1027B8004FEA8C0C4FF00F0E0EFA0CFE24EA0E0EA8
:1027C8000C6904FA0CF444EA0E0440F825406FE062
:1027D800092400E0002404FA0EF42C430CF1020C46
:1027E8006B4D45F82C404FF0B0442568D44325EA9A
:1027F8000206D1F804C01CF4801F01D042EA050685
:102808004FF0B0452E606D6804EA0506D1F804C0A3
:102818001CF4001F01D042EA05064FF0B0456E6077
:10282800D5F8845004EA0506D1F804C01CF4003F2A
:1028380001D042EA05064FF0B045C5F88460D5F8E6
:1028480080502C404E6816F4803F01D042EA0504BF
:102858004FF0B042C2F8804001330A6832FA03F4FC
:1028680000F093804FF0010C0CFA03FC1CEA020202
:10287800F2D04C6804F00304013C012C7FF67EAFD3
:102888004C6804F00304032C0CD0C4685D004FF0BE
:10289800030C0CFA05FC24EA0C0C8C68AC4044EAE6
:1028A8000C04C4604C6804F00304022C3FF47AAFB3
:1028B80004684FEA430E4FF0030C0CFA0EFC24EAAE
:1028C8000C0C4C6804F0030404FA0EF444EA0C04FB
:1028D80004604C6814F4403FBED02E4CD4F8F45039
:1028E80045F00205C4F8F450D4F8F44004F00204AA
:1028F8000194019C4FEA930C0CF10205244C54F806
:10290800255003F0030E4FEA8E0E0F2404FA0EF43E
:1029180025EA0405204CA0423FF45CAF04F580642E
:10292800A04222D004F58064A04220D004F580643F
:10293800A0421ED004F58064A0421CD004F5806437
:10294800A0421AD004F58064A04218D004F580642F
:10295800A04216D004F58064A04214D004F5806427
:10296800A0423FF435AF0A2435E7012433E70224B7
:1029780031E703242FE704242DE705242BE7062459
:1029880029E7072427E7082425E702B070BD00BF20
:102998000004005800440258000002580AB181613E
:1029A800704709048161704770B54D680368DC6839
:1029B800C4F30B4425444FEAC21C03EBC213D3F8FB
:1029C800884004F47044C3F888400B680468E668DB
:1029D800C6F30B463344013304EBC21443EA054300
:1029E800C4F88830CD680368DC68C4F30A04254459
:1029F80003EBC213D3F88C4004F47044C3F88C4042
:102A08008B680468E668C6F30A0E7344013304EB66
:102A1800C21443EA0543C4F88C30036803EBC213BD
:102A2800D3F8944024F00704C3F89440036803EBF8
:102A3800C2130C69C3F8944091F831E091F8326000
:102A48008D69036803EBC213D3F89C400024C3F8D4
:102A58009C4091F8303043EA0E2343EA0643066867
:102A680006EBC21E43EA0563CEF89C300EF1840ED5
:102A7800036803EBC213D3F8985025F0FF05C3F899
:102A88009850036803EBC2134D69C3F89850036864
:102A980003EBC213D3F8A060334D3540C3F8A05000
:102AA8000D6A036803EBC213CE693543C3F8A0501F
:102AB800036803EBC213D3F8AC50C3F8AC40036807
:102AC80003EBC2134A6AC3F8AC200B69072B13D86F
:102AD80001A252F823F000BF6D2B00085D2B0008FF
:102AE800612B0008652B0008612B0008012B0008EA
:102AF800012B0008692B0008012503686344D3F8FB
:102B0800B02002F0E022C3F8B0208B6A05FB03F482
:102B18004B680A689B1A05FB03F307330268624493
:102B280043EA0443C2F8B03003686344D3F8B420DE
:102B38006FF30A02C3F8B42003686344CA6AC3F88F
:102B4800B42003686344D3F8842042F00102C3F838
:102B5800842070BD0325D0E70225CEE70225CCE707
:102B68000225CAE70425C8E7F8F8FFFF002875D052
:102B780010B5044690F8A130002B6AD0022384F8DF
:102B8800A1302268936923F07043936121688A69B0
:102B98006368A0680343E068034320690343134361
:102BA8008B6121688A682E4B1A408A602068826887
:102BB800A169D4F814C041EA0C410A438260216833
:102BC800CA681A40CA602068C268216AD4F81CC062
:102BD80041EA0C410A43C26021680A691A400A6145
:102BE80020680269A16AD4F824C041EA0C410A436A
:102BF800026121684A6913404B61E06A21684B69A8
:102C0800226B42EA004213434B6194F8350094F872
:102C180036301B042168CA6A02F07F42CA62216802
:102C2800CA6A43EA002394F8340003431343CB628F
:102C38002268536B43F0060353632268936943F099
:102C4800010393610020C4F8A400012384F8A13093
:102C580010BD80F8A030FEF725FA8FE701207047F5
:102C680000F800F0F8B590F8A030012B2CD00446FD
:102C78000D461646012780F8A070022380F8A1307F
:102C88004FF0340C0CFB020C0CF1380C8E46BEE8ED
:102C98000F00ACE80F00BEE80F00ACE80F00BEE87C
:102CA8000F00ACE80F00DEF80030CCF800303246F8
:102CB80029462046FFF778FE23685F6284F8A170F2
:102CC800002084F8A000F8BD0220FCE7134BDB6865
:102CD80013F0040F07D1114BDB6803F0070383429D
:102CE8001AD00120704710B50C4AD36823F00703A7
:102CF8000343D360FEF7D6FB0446084B5B6813F426
:102D0800005F07D1FEF7CEFB001BB0F57A7FF4D940
:102D1800012000E0002010BD002070470048025844
:102D2800002800F0398338B50446036813F0010F12
:102D380025D0944A136903F03803926A102B15D0F2
:102D4800182B0FD06368B3F5803F3FD0002B53D1C9
:102D58008C4B1A6822F480321A601A6822F4802296
:102D68001A6038E002F00302022AEBD1854B1B6897
:102D780013F4003F03D06368002B00F00F8323682F
:102D880013F0020F00F0A1807E4A1369926A13F0D3
:102D980038035AD0182B55D0E368002B00F0DE809A
:102DA80078490A6822F0190213430B60FEF77AFB90
:102DB8000546744B1B6813F0040F40F0AD80FEF716
:102DC80071FB401B0228F4D90320EEE26D4A136818
:102DD80043F48033136063682BB3FEF763FB054647
:102DE800684B1B6813F4003FC9D1FEF75BFB401B1F
:102DF8006428F5D90320D8E2B3F5A02F09D0614B98
:102E08001A6822F480321A601A6822F480221A6042
:102E1800E1E75C4B1A6842F480221A601A6842F4AF
:102E280080321A60D7E7FEF73DFB0546554B1B6815
:102E380013F4003FA3D0FEF735FB401B6428F5D9F7
:102E48000320B2E212F0030FA6D14E4B1B6813F019
:102E5800040F03D0E368002B00F0A282494A1368EC
:102E680023F01903E1680B431360FEF71BFB0546CB
:102E7800444B1B6813F0040F06D1FEF713FB401BED
:102E88000228F5D9032090E2FEF712FB41F2030372
:102E9800984212D82269402A07D03A494B6823F44D
:102EA8007C3343EA02334B600FE0364A536823F41D
:102EB8007C3343F40033536007E0324A536823F00D
:102EC800FE43216943EA01635360236813F0100F3E
:102ED80000F088802B4A136903F03803926A082BA4
:102EE80056D0182B50D0E369002B00F0B880254A43
:102EF800136843F080031360FEF7D4FA0546214BAC
:102F08001B6813F4807F40F08880FEF7CBFA401BE3
:102F18000228F4D9032048E2FEF7CAFA41F2030373
:102F2800984212D82269402A07D016494B6823F4E0
:102F38007C3343EA02334B60C7E7124A536823F4F1
:102F48007C3343F400335360BFE70E4A536823F0E1
:102F5800FE43216943EA01635360B6E7094A1368EF
:102F680023F001031360FEF79DFA0546054B1B6825
:102F780013F0040FA9D0FEF795FA401B0228F5D9E3
:102F8800032012E20044025802F00302012AAAD1E7
:102F9800A14B1B6813F4807F03D0E369802B40F0BA
:102FA8000182FEF785FA41F20303984212D8226A99
:102FB800202A07D098494B6823F0F84343EA8263F4
:102FC8004B600FE0944A536823F0F84343F0804382
:102FD800536007E0904AD36823F07C53216A43EAA0
:102FE8000163D360236813F0080F60D06369002B76
:102FF80049D0894A536F43F001035367FEF752FAE9
:103008000546854B5B6F13F0020F50D1FEF74AFA65
:10301800401B0228F5D90320C7E1FEF749FA41F21F
:103028000303984212D8226A202A07D07A494B68AB
:1030380023F0F84343EA82634B60D3E7764A536848
:1030480023F0F84343F080435360CBE7724AD368D8
:1030580023F07C53216A43EA0163D360C2E76E4AD6
:10306800136823F080031360FEF71CFA05466A4BC9
:103078001B6813F4807FB5D0FEF714FA401B0228B2
:10308800F5D9032091E1644A536F23F00103536794
:10309800FEF708FA0546604B5B6F13F0020F06D087
:1030A800FEF700FA401B0228F5D903207DE12368CA
:1030B80013F0200F29D0A3699BB1574A136843F432
:1030C80080531360FEF7EEF90546534B1B6813F463
:1030D800005F1AD1FEF7E6F9401B0228F5D9032054
:1030E80063E14D4A136823F480531360FEF7DAF95D
:1030F8000546494B1B6813F4005F06D0FEF7D2F96A
:10310800401B0228F5D903204FE1236813F0040F70
:1031180021D1636A002B00F047813F4A126902F00F
:103128003802182A00F0EE80022B79D03A4A136848
:1031380023F080731360FEF7B5F90446364B1B681D
:1031480013F0007F00F0DC80FEF7ACF9001B0228CA
:10315800F4D9032029E1314A136843F480731360DA
:10316800FEF7A0F905462D4B1B6813F4807F06D1A6
:10317800FEF798F9401B6428F5D9032015E1A368E8
:10318800012B0AD00BBB244B1A6F22F001021A67DD
:103198001A6F22F004021A6704E01F4A136F43F003
:1031A80001031367A36833B3FEF77CF905461A4B8E
:1031B8001B6F13F0020FACD1FEF774F9401B41F2FC
:1031C80088339842F3D90320EFE0052B09D0124B3E
:1031D8001A6F22F001021A671A6F22F004021A67A6
:1031E800E0E70D4B1A6F42F004021A671A6F42F0BB
:1031F80001021A67D6E7FEF755F90546064B1B6F1D
:1032080013F0020F85D0FEF74DF9401B41F28833C9
:103218009842F3D90320C8E00044025800480258F5
:10322800694A136823F080731360FEF73BF905467B
:10323800654B1B6813F0007F06D0FEF733F9401B7F
:103248000228F5D90320B0E05F4B996A5F4A0A402B
:10325800A16AE06A41EA00110A439A62226B013AC4
:10326800C2F30802616B0139490289B20A43A16BB2
:103278000139090401F4FE010A43E16B0139090629
:1032880001F0FE410A431A63DA6A22F00102DA62A7
:103298005A6B6FF3CF02A16C42EAC1025A63DA6A31
:1032A80022F00C02216C0A43DA62DA6A22F0020286
:1032B800616C0A43DA62DA6A42F48032DA62DA6A04
:1032C80042F40032DA62DA6A42F48022DA62DA6AB6
:1032D80042F00102DA621A6842F080721A60FEF760
:1032E800E1F80446384B1B6813F0007F06D1FEF75F
:1032F800D9F8001B0228F5D9032056E0002054E035
:10330800002052E0304A916A106B012B4ED001F038
:103318000303A26A93424BD1C1F30511E36A9942B0
:1033280048D1C0F30802236B013B9A4244D1C0F351
:103338004622636B013B9A4240D1C0F30642A36B1D
:10334800013B9A423CD1C0F30660E36B013B9842D3
:1033580038D11D4B5B6BC3F3CC03A26C9A4201D1ED
:10336800002022E0184AD36A23F00103D362FEF753
:1033780099F80546FEF796F8A842FBD0124A536B17
:103388006FF3CF03A16C43EAC1035363D36A43F0DD
:103398000103D362002008E001207047012004E007
:1033A800012002E0012000E0002038BD0120FCE7F8
:1033B8000120FAE70120F8E70120F6E70120F4E709
:1033C8000120F2E70120F0E7004402580CFCFFFF5F
:1033D800F8B5814B1B6903F03803102B00F0F4801B
:1033E800182B0FD0002B40F0F2807B4B1B6813F09A
:1033F800200F00F0EE80784B1B68C3F3C103774CB5
:10340800DC40E2E0744B9D6A05F003059C6AC4F356
:103418000514D86A00F001005B6BC3F3CC0303FB0F
:1034280000F0FCF7EBFF0646002C00F0CE80012DE3
:1034380056D0022D00F08480002D40F0A380664B0A
:103448001B6813F0200F29D0634F3B68C3F3C103F7
:103458006248D840FCF7D2FF05462046FCF7CEFF6D
:1034680001462846FDF7D6F80446386BC0F3080035
:10347800FCF7C4FF05464FF064513046FDF716F8D7
:1034880001462846FCF70AFF4FF07E51FCF706FF7D
:1034980001462046FDF70AF8044642E02046FCF7BC
:1034A800ADFF01464E48FDF7B5F804464A4B186B88
:1034B800C0F30800FCF7A2FF05464FF06451304600
:1034C800FCF7F4FF01462846FCF7E8FE4FF07E5172
:1034D800FCF7E4FE01462046FCF7E8FF044620E03E
:1034E8002046FCF78BFF01463E48FDF793F804465B
:1034F800394B186BC0F30800FCF780FF05464FF006
:1035080064513046FCF7D2FF01462846FCF7C6FE58
:103518004FF07E51FCF7C2FE01462046FCF7C6FF7D
:1035280004462D4B1B6BC3F34623581CFCF766FF60
:1035380001462046FDF76EF8FDF708F9044644E019
:103548002046FCF75BFF01462748FDF763F8044671
:10355800214B186BC0F30800FCF750FF05464FF0ED
:1035680064513046FCF7A2FF01462846FCF796FE58
:103578004FF07E51FCF792FE01462046FCF796FF7D
:103588000446CEE72046FCF739FF01461548FDF70B
:1035980041F80446104B186BC0F30800FCF72EFFE7
:1035A80005464FF064513046FCF780FF0146284637
:1035B800FCF774FE4FF07E51FCF770FE0146204682
:1035C800FCF774FF0446ACE7084C2046F8BD084CED
:1035D800FBE7024CF9E700BF004402580090D00313
:1035E8000024744C0024744A20BCBE4B40787D01F2
:1035F80000093D00002800F0328170B50D460446F0
:103608009B4B1B6803F00F038B420BD2984A13683D
:1036180023F00F030B431360136803F00F038B426F
:1036280040F01F81236813F0040F0CD02269914BDE
:103638009B6903F070039A4205D98E498B6923F080
:1036480070031A438A61236813F0080F0CD062696B
:10365800884BDB6903F070039A4205D98549CB6929
:1036680023F070031A43CA61236813F0100F0CD0BB
:10367800A269804BDB6903F4E0639A4205D97D496E
:10368800CB6923F4E0631A43CA61236813F0200F5F
:103698000CD0E269774B1B6A03F070039A4205D994
:1036A80074490B6A23F070031A430A62236813F003
:1036B800020F0CD0E2686F4B9B6903F00F039A422C
:1036C80005D96C498B6923F00F031A438A61236873
:1036D80013F0010F41D0674A936923F47063A1681E
:1036E8000B4393616368022B0AD0032B27D0012B6D
:1036F8002CD0604A126812F0040F06D10120ADE008
:10370800126812F4003F00F0AE805A490A6922F0AC
:10371800070213430B61FDF7C5FE0646554B1B69AF
:1037280003F038036268B3EBC20F16D0FDF7BAFE98
:10373800801B41F288339842F0D903208EE04D4A2D
:10374800126812F0007FE0D1012087E0494A126830
:1037580012F4807FD9D1012080E0236813F0020F92
:103768000CD0E268434B9B6903F00F039A4205D2E1
:1037780040498B6923F00F031A438A613C4B1B684D
:1037880003F00F03AB420AD9394A136823F00F0339
:103798002B431360136803F00F03AB4265D1236812
:1037A80013F0040F0CD02269324B9B6903F07003AD
:1037B8009A4205D22F498B6923F070031A438A6114
:1037C800236813F0080F0CD062692A4BDB6903F0F9
:1037D80070039A4205D22749CB6923F070031A4334
:1037E800CA61236813F0100F0CD0A269214BDB6962
:1037F80003F4E0639A4205D21E49CB6923F4E063DF
:103808001A43CA61236813F0200F0CD0E269194BE0
:103818001B6A03F070039A4205D216490B6A23F01B
:1038280070031A430A62FFF7D3FD12498B69C3F389
:103838000323114AD35C03F01F03D8408B6903F0BC
:103848000F03D35C03F01F0320FA03F30B4A136042
:103858000B4B18600B4B1868FDF7C2FD70BD0120BB
:1038680070470120FAE70120F8E70120F6E700BFDA
:103878000020005200440258CC4D000800000024EB
:10388800040000240C000024404B9B6A03F003034F
:10389800032B79D070B505460E463C4A136823F0D1
:1038A80080631360FDF7FEFD0446384B1B6813F078
:1038B800006F06D0FDF7F6FD031B022BF5D9032098
:1038C80070BD324B9A6A22F47C32296842EA01328E
:1038D8009A626A68013AC2F30802A9680139490282
:1038E80089B20A43E9680139090401F4FE010A436F
:1038F80029690139090601F0FE410A439A63DA6A27
:1039080022F0C00269690A43DA62DA6A22F0200208
:10391800A9690A43DA62DA6A22F01002DA62DA6B1B
:103928006FF3CF02E96942EAC102DA63DA6A42F068
:103938001002DA62C6B91A46DB6A43F40023D3627E
:10394800124A136843F080631360FDF7ABFD044629
:103958000E4B1B6813F0006F14D1FDF7A3FD001B7D
:103968000228F5D90320ABE7012E05D0074AD36A10
:1039780043F40013D362E3E7044AD36A43F48013A1
:10398800D362DDE700209BE701207047004402581E
:10399800404B9B6A03F00303032B79D070B50546AF
:1039A8000E463C4A136823F080531360FDF77AFDF6
:1039B8000446384B1B6813F0005F06D0FDF772FD14
:1039C800031B022BF5D9032070BD324B9A6A22F0F3
:1039D8007C72296842EA01529A626A68013AC2F323
:1039E8000802A9680139490289B20A43E96801391C
:1039F800090401F4FE010A4329690139090601F0A5
:103A0800FE410A431A64DA6A22F4406269690A4389
:103A1800DA62DA6A22F40072A9690A43DA62DA6AB7
:103A280022F48072DA625A6C6FF3CF02E96942EAD3
:103A3800C1025A64DA6A42F48072DA62C6B91A4676
:103A4800DB6A43F48003D362124A136843F080535D
:103A58001360FDF727FD04460E4B1B6813F0005F4B
:103A680014D1FDF71FFD001B0228F5D90320ABE791
:103A7800012E05D0074AD36A43F08073D362E3E787
:103A8800044AD36A43F40003D362DDE700209BE7CE
:103A98000120704700440258F8B50446036813F043
:103AA800006F30D0836EB3F5001F26D00ED8ABB1AF
:103AB800B3F5801F07D102210830FFF7E5FE054660
:103AC80095B12E4621E0012635461EE0B3F5401F8C
:103AD80001D1002508E00126354616E09F4AD36A41
:103AE80043F40033D36200259C4A136D23F440133A
:103AF800A16E0B431365002607E002212830FFF76B
:103B080047FF0546DCE700263546236813F4807F27
:103B18001DD0A36D042B3AD801A252F823F000BFA0
:103B28003D3B00087B3B0008893B0008473B0008F9
:103B3800473B0008894AD36A43F40033D3624DBB3C
:103B4800864A136D23F00703A16D0B4313652368A1
:103B580013F4007F3FD0E36D802B2ED01FD833B3F2
:103B6800402B19D1002104F10800FFF78DFE05460E
:103B780029E0002104F10800FFF786FE0546DEE78C
:103B8800002104F12800FFF703FF0546D7E70126C7
:103B98003546DCE72E46DAE7012635461BE0C02B22
:103BA80011D0B3F5807F0ED00126354613E06B4A5D
:103BB800D36A43F40033D36205E0002104F12800FE
:103BC800FFF7E6FE0546DDB9644A136D23F4E0739A
:103BD800E16D0B431365236813F4806F33D0D4F879
:103BE800A830B3F5800F1FD00FD8BBB1B3F5001FB5
:103BF80008D1002104F10800FFF746FE054619E048
:103C08002E46E8E7012635461DE0B3F5C00F11D072
:103C1800B3F5000F0ED00126354614E04F4AD36A9B
:103C280043F40033D36205E0002104F12800FFF7D4
:103C3800AFFE0546E5B9494A936D23F46003D4F80D
:103C4800A8100B439365236813F4006F34D0D4F89D
:103C5800AC30B3F1007F1FD00FD8BBB1B3F1807F78
:103C680008D1002104F10800FFF70EFE054619E00F
:103C78002E46E8E7012635461EE0B3F1407F11D015
:103C8800B3F1806F0ED00126354615E0334AD36A6A
:103C980043F40033D36205E0002104F12800FFF764
:103CA80077FE0546002D33D12C4A936D23F0E0634F
:103CB800D4F8AC100B439365236813F0007F13D03E
:103CC800E36C202B2ED028D833B1102B22D1234AD5
:103CD800D36A43F40033D3625DBB204AD36C23F02C
:103CE8003003E16C0B43D364236813F4805F47D03F
:103CF800236EB3F5005F33D020D843B3B3F5805FAC
:103D080019D1002104F10800FFF7BEFD05462DE09A
:103D18002E46D1E701263546E6E7302BDCD00126D2
:103D28003546E1E7022104F10800FFF7ADFD05463D
:103D3800D2E72E46D8E70126354621E0B3F5405FA5
:103D480014D0B3F5804F11D00126354618E0034A48
:103D5800D36A43F40033D36208E000BF004402583A
:103D6800002104F12800FFF713FE05463DB9944AE7
:103D7800136D23F4E043216E0B43136500E02E46D8
:103D8800236813F4005F17D0636EB3F5003F4FD07C
:103D980042D843B1B3F5803F3BD1012104F108007B
:103DA800FFF772FD0546002D49D1854A136D23F4AE
:103DB800E023616E0B431365236813F4804F19D019
:103DC800D4F8B030B3F1005F4AD03DD843B1B3F175
:103DD800805F36D1012104F10800FFF755FD054643
:103DE800002D44D1764A936D23F0E043D4F8B01007
:103DF8000B439365236813F4004F47D0236FB3F147
:103E0800805F36D0B3F1005F54D0BBB3012635468E
:103E18003CE001263546CFE7B3F5802FC3D0B3F594
:103E2800A02FC0D0B3F5403FBDD001263546C3E72B
:103E3800012104F12800FFF7ABFD0546B3E72E4644
:103E4800BAE701263546D5E7B3F1804FC8D0B3F1BC
:103E5800A04FC5D0B3F1405FC2D001263546C9E7AF
:103E6800012104F12800FFF793FD0546B8E72E4627
:103E7800C0E7534AD36A43F40033D3620DBB504AB8
:103E8800136D23F04053216F0B431365236813F020
:103E9800807F26D0A36C032B00F28D8001A252F8FC
:103EA80023F000BFD93E0008CF3E0008B13F00080C
:103EB800D93E0008012104F10800FFF7E5FC05469A
:103EC800DCE72E46E2E73E4AD36A43F40033D36286
:103ED800002D73D13A4AD36C23F00303A16C0B4332
:103EE800D364236813F4800F6CD1236813F0010F97
:103EF80000F0E480E36F282B00F2DE8001A252F884
:103F080023F000BFA1400008C1400008C1400008DC
:103F1800C1400008C1400008C1400008C140000875
:103F2800C140000895400008C1400008C140000891
:103F3800C1400008C1400008C1400008C140000855
:103F4800C1400008B3400008C1400008C140000853
:103F5800C1400008C1400008C1400008C140000835
:103F6800C1400008A1400008C1400008C140000845
:103F7800C1400008C1400008C1400008C140000815
:103F8800C1400008A1400008C1400008C140000825
:103F9800C1400008C1400008C1400008C1400008F5
:103FA800C1400008A1400008022104F10800FFF701
:103FB8006BFC05468CE70126354692E72E4690E7CE
:103FC80000440258624A136843F480731360FDF793
:103FD80069FA07465E4B1B6813F4807F05D1FDF72D
:103FE80061FAC01B6428F5D90325002D4AD1594B25
:103FF8001B6FD4F8B420534013F4407F0CD0554BBA
:104008001A6F22F44072196F41F480311967196FE1
:1040180021F4803119671A67D4F8B430B3F5807F7A
:1040280015D08DBBD4F8B43003F44072B2F5407F9C
:104038001ED0484A136923F47C53136145490B6F1A
:10404800D4F8B420C2F30B0213430B674DE7FDF716
:1040580029FA07463F4B1B6F13F0020FE1D1FDF71A
:1040680021FAC01B41F288339842F3D90325D8E7D7
:104078003848026922F47C52374901EA1313134382
:104088000361DBE72E4630E72E462EE7012104F1D7
:104098000800FFF7F9FB054635BB2E4A536D23F0A0
:1040A8003803E16F0B43536508E0012104F1280050
:1040B800FFF76EFC0546EFE701263546236813F047
:1040C800020F21D0A36F052B3DD801A252F823F08F
:1040D80001410008F540000841410008014100087D
:1040E80001410008014100082E46E7E7012104F1DB
:1040F8000800FFF7C9FB054645BB164A536D23F078
:104108000703A16F0B435365236813F0040F36D0E0
:10411800D4F89430052B00F2158101A252F823F04F
:1041280071410008654100083F43000871410008DB
:104138007141000871410008012104F12800FFF7CE
:1041480027FC0546D8E701263546DDE72E46DBE79E
:104158000048025800440258CFFFFF00012104F133
:104168000800FFF791FB0546002D40F0EE80B64AA7
:10417800936D23F00703D4F894100B4393652368D9
:1041880013F0200F1DD0D4F89030B3F1005F00F089
:10419800F08000F2DF804BB1B3F1805F40F0D78050
:1041A800002104F10800FFF76FFB0546002D40F0E1
:1041B800E780A54A536D23F0E043D4F890100B43F1
:1041C8005365236813F0400F1DD0D4F89C30B3F525
:1041D800006F00F0E98000F2D8804BB1B3F5806F32
:1041E80040F0D080002104F10800FFF74DFB0546A0
:1041F800002D40F0E080944A936D23F4E053D4F806
:104208009C100B439365236813F0800F1DD0D4F8DE
:10421800A030B3F5804F00F0E28000F2D1804BB1BE
:10422800B3F5005F40F0C980002104F10800FFF7F2
:104238002BFB0546002D40F0D980834A936D23F46B
:104248006043D4F8A0100B439365236813F0080F5C
:104258000DD0D4F88430B3F5805F00F0C9807A4A75
:10426800536D23F44053D4F884100B4353652368EB
:1042780013F0100F0DD0D4F89830B3F5807F00F00C
:10428800C180714A936D23F44073D4F898100B439E
:104298009365236813F4002F1CD0D4F8A430B3F529
:1042A800803F00F0B980B3F5003F08D0002B40F004
:1042B800BA80002104F10800FFF7E6FA0546002D50
:1042C80040F0B480604A936D23F44033D4F8A410CE
:1042D8000B439365236813F4802F1CD0D4F88830DF
:1042E800B3F5001F00F0A480B3F5401F08D0B3F564
:1042F800801F40F0A480544AD36A43F40033D36249
:10430800002D40F09F80504A536D23F44013D4F899
:1043180088100B435365236813F4803F00F0AC808A
:10432800236D002B00F09280B3F5803F00F09C8055
:1043380001263546A0E0012104F12800FFF728FBFB
:10434800054611E70126354619E72E4617E70126E7
:10435800354636E7B3F1804F3FF428AFB3F1A04FAD
:104368003FF424AFB3F1405F3FF420AF0126354658
:1043780027E7022104F12800FFF70AFB054615E7A5
:104388002E461EE7012635463DE7B3F5805F3FF42C
:104398002FAFB3F5A05F3FF42BAFB3F5406F3FF4F9
:1043A80027AF012635462EE7022104F12800FFF742
:1043B800EFFA05461CE72E4625E70126354644E771
:1043C800B3F5004F3FF436AFB3F5204F3FF432AFAB
:1043D800B3F5C04F3FF42EAF0126354635E702212D
:1043E80004F12800FFF7D4FA054623E72E462CE708
:1043F800022104F12800FFF7CBFA00283FF42FAF81
:1044080001262CE7022104F12800FFF7C1FA002851
:104418003FF437AF012634E7022104F12800FFF703
:10442800B7FA05464BE70126354653E72E4651E7CE
:10443800012104F12800FFF7ABFA054660E70126E1
:10444800354668E72E4666E700440258704AD36A44
:1044580043F40033D36275B96D4AD36C23F48033C7
:10446800216D0B43D36407E0022104F10800FFF734
:104478000BFA0546EFE72E46236813F0005F11D1CB
:10448800236813F4003F28D0D4F88030B3F5807F38
:1044980014D010D9B3F5007F15D0B3F5407F12D0F2
:1044A80001261AE0022104F12800FFF771FA00281A
:1044B800E6D00126E4E733B101260EE0544AD36A78
:1044C80043F40033D362002D69D1514A536D23F46C
:1044D8004073D4F880100B435365236813F4801F8E
:1044E80006D04B4A136D23F00043616F0B431365ED
:1044F800236813F0805F07D0454A136923F480438B
:10450800D4F8B8100B431361236813F4001F06D0C6
:104518003F4A136D23F08073E16E0B4313652368E4
:1045280013F0804F09D03A4B1A6922F400421A61FD
:104538001A69D4F8BC100A431A612368002B06DAFA
:10454800334AD36C23F04053616D0B43D364236823
:1045580013F4000F07D02E4A536D23F44003D4F808
:104568008C100B435365636813F0010F19D163680E
:1045780013F0020F1ED1636813F0040F23D1636890
:1045880013F0080F28D1636813F0100F2DD163685A
:1045980013F0200F32D106B101263046F8BD2E4661
:1045A8009BE7002104F10800FFF76EF90028DED030
:1045B8000646DCE7012104F10800FFF765F9002849
:1045C800D9D00646D7E7022104F10800FFF75CF9C5
:1045D8000028D4D00646D2E7002104F12800FFF7CE
:1045E800D7F90028CFD00646CDE7012104F12800ED
:1045F800FFF7CEF90028CAD00646C8E7022104F121
:104608002800FFF7C5F90028C5D00126C5E700BF77
:104618000044025808B338B50D46044690F82C30CB
:10462800B3B1022384F82C30214651F8040B00F072
:1046380023FA62682946206800F056FA084A136887
:1046480043F000431360012384F82C30002038BD68
:1046580080F82D30FCF726FEE3E70120704700BF05
:104668000040005210B4844690F82C40E0B2022C6E
:104678001AD0042818BF012818D19CF82D40012C05
:1046880016D001248CF82D4002248CF82C4004E02C
:1046980051F8044B42F8044B013B002BF8D18CF83D
:1046A8002C0000208CF82D0010BC70470120FBE77F
:1046B8000220F9E710B4036A046A24F001040462D2
:1046C800846924F0F00C4CEA021223F00A030B432D
:1046D8008261036210BC704710B4036A046A24F054
:1046E80010040462846924F4704C4CEA023223F00A
:1046F800A00343EA01138261036210BC7047000003
:104708008268034B13400B4343F0070383607047F1
:104718008FFFCFFF30B503683D4A904214BF4FF07A
:10472800000E4FF0010EB0F1804F14BF72464EF0EC
:104738000102AAB9374CA04214BF00240124364D07
:10474800A8420DD064B904F1804404F58234A04233
:1047580014BF0024012405F50065A84200D01CB14F
:1047680023F070034C68234312BB2A4A904214BFBB
:1047780000220122284CA0421AD0CAB902F1804274
:1047880002F58232904214BF0022012204F500642F
:10479800A0420DD062B9214A904214BF00220122E2
:1047A80004F59A34A04203D012B91D4A904204D1AC
:1047B80023F4407CCB6843EA0C0323F080034A6966
:1047C800134303608A68C2620A688262154A90428B
:1047D80014BF73464EF0010363B9104B984214BFDF
:1047E8000023012302F57052904203D013B90C4BF9
:1047F800984201D10B69036301234361036913F0F4
:10480800010F03D0036923F00103036130BD00BF2A
:10481800000001400008004000040040004401403E
:10482800004801400004014060B310B5044690F808
:104838003D3013B3022384F83D30214651F8040B70
:10484800FFF768FF012384F8483084F83E3084F885
:104858003F3084F8403084F8413084F8423084F89E
:10486800433084F8443084F8453084F8463084F87E
:10487800473084F83D30002010BD80F83C30FCF70C
:10488800B7FCD7E70120704710B4846824F47F4C44
:1048980042EA03220A4342EA0C02826010BC7047D3
:1048A80090F83C30012B00F08F8010B504460123AE
:1048B80080F83C30022380F83D3002689068434B12
:1048C800034093600B68702B55D031D8502B6CD0B7
:1048D8001FD8402B0AD1CA6849682068FFF7EAFE4A
:1048E80040212068FFF70CFF002029E068D8202B22
:1048F80003D00AD80BB1102B05D119462068FFF751
:10490800FFFE00201CE001201AE0302BF5D001202A
:1049180016E0602B0AD1CA6849682068FFF7DCFEF8
:1049280060212068FFF7ECFE002009E0012007E085
:10493800B3F5005F2CD00AD8B3F5805F42D10020D0
:10494800012384F83D30002384F83C3010BD204A10
:104958009342D2D007D8B3F5801FCED0B3F1101F41
:10496800CBD00120ECE71B4A9342C6D010329342C9
:10497800C3D00120E4E7CB684A6889682068FFF75C
:1049880083FF2268936843F0770393600020D7E79A
:10499800CB684A6889682068FFF776FF22689368C1
:1049A80043F4804393600020CAE7CA6849682068D6
:1049B800FFF780FE50212068FFF7A2FE0020BFE726
:1049C8000120BDE70120BBE7022070478800CEFF29
:1049D800200010003000100090F83C20012A45D03B
:1049E80070B40346012280F83C20022280F83D2062
:1049F8000268506894681E4E1E4DAA4218BFB24203
:104A080003D120F470004D68284320F070000D6831
:104A1800284350601A681648B2F1804F18BF824286
:104A280017D0A0F57C40824213D000F58060824206
:104A38000FD000F5806082420BD000F578408242AA
:104A480007D0A0F56C40824203D000F59430824232
:104A580004D124F08004896821439160012283F8FD
:104A68003D20002083F83C0070BC7047022070474E
:104A7800000001400004014010B40B68C3B902688B
:104A88006FF30E024B688C682343CC6823430C6990
:104A980023434C6923438C692343CC6923430C6A21
:104AA8002343496A0B4313430360002010BC70473B
:104AB800036823F4F843CA690C6A22434C6A224308
:104AC8001343036042686FF30E024B688C682343FC
:104AD800CC6823430C6923434C69234389690B43FE
:104AE80013434360E1E7000052BB826802F0704262
:104AF8000B68013BD1F804C00CF1FF3C43EA0C13EE
:104B0800D1F808C00CF1FF3C43EA0C23D1F80CC0E3
:104B18000CF1FF3C43EA0C33D1F810C00CF1FF3C18
:104B280043EA0C43D1F814C00CF1FF3C43EA0C53A0
:104B38008969013943EA01631343836000207047A0
:104B48008368154A1A40CB6803F1FF3C4B69013B67
:104B58001B0543EA0C331A438260C26802F07042B4
:104B68000B68013BD1F804C00CF1FF3C43EA0C137D
:104B7800D1F808C00CF1FF3C43EA0C23D1F810C06F
:104B88000CF1FF3C43EA0C438969013943EA0163AC
:104B98001343C360D2E700BFFF0F0FFF0023014696
:104BA8001A46184600F092B8830730B547D0541E0D
:104BB800002A3ED0CAB2034601E0013C39D303F8CB
:104BC800012B9D07F9D1032C2CD9CDB205EB052576
:104BD8000F2C05EB054535D9A4F1100222F00F0C76
:104BE80003F1100EE6444FEA121C1A46C2E90055BA
:104BF800C2E9025510327245F8D10CF1010214F0E5
:104C08000C0F03EB021204F00F0C13D0ACF10403E9
:104C180023F003030433134442F8045B9342FBD1AB
:104C28000CF003042CB1C9B21C4403F8011BA342C5
:104C3800FBD130BD64461346002CF4D1F9E7034696
:104C48001446C0E71A46A446E0E700BF70B50F4B0C
:104C58000F4DAB42A3EB050607D0B610002455F85C
:104C6800043B01349847A642F9D800F079F8094D79
:104C7800094B5E1BAB424FEAA60606D0002455F846
:104C8800043B01349847A642F9D870BDEC4D0008A2
:104C9800EC4D0008EC4D0008F44D000838B5074D00
:104CA800074C2C1BA41005D0013C55F8043D98472F
:104CB800002CF9D1BDE8384000F058B8F84D00088C
:104CC800F44D0008704700BF704700BF2DE9F84356
:104CD8001B4D0646286898460F469146FFF7F2FF97
:104CE800184B1C681CB3286865681F2D22DC4EB958
:104CF8006B1C0235636044F82570FFF7E5FF002060
:104D0800BDE8F88304EB85010123C1F88890D4F845
:104D18008821AB401A43022EC4F88821C1F80881C3
:104D2800E6D1D4F88C211A43C4F88C21E0E7064C6C
:104D38001C60D8E7FFF7C8FF4FF0FF30E0E700BF7F
:104D4800100000240C0400247C020024024B13B140
:104D58000248FFF723BF704700000000A54C000879
:104D6800F8B500BFF8BC08BC9E467047F8B500BF50
:084D7800F8BC08BC9E46704720
:104D80000000000000000000000000000000000023
:104D9000000000000100000002000000030000000D
:104DA00004000000000000000500000000000000FA
:104DB00000000000000000000600000000000000ED
:104DC00000000000000000000700000000000000DC
:104DD0000102030401020304060708090006101675
:044DE00000061016A3
:084DE400B0B9FF7F01000000DF
:084DEC00554D0008ED08000818
:044DF400C9080008E2
:104DF8000090D0030090D0030100000010000000D4
:044E08007802002408
:040000050800139547
:00000001FF
