:020000040800F2
:1000000000000824291C0008751A0008791A000845
:100010007D1A0008811A0008851A000800000000F7
:10002000000000000000000000000000891A000825
:100030008D1A000800000000911A0008951A0008A7
:10004000791C0008791C0008791C0008791C00083C
:10005000791C0008791C0008791C0008791C00082C
:10006000791C0008791C0008791C0008991A0008FE
:10007000791C0008791C0008791C0008791C00080C
:10008000791C0008791C0008791C0008A51A0008D2
:10009000791C0008791C0008791C0008791C0008EC
:1000A000791C0008791C0008791C0008791C0008DC
:1000B000791C0008791C0008791C0008791C0008CC
:1000C000791C0008791C0008791C0008791C0008BC
:1000D000791C0008791C0008791C0008791C0008AC
:1000E000B11A0008791C000800000000791C000803
:1000F000791C0008791C0008791C0008791C00088C
:10010000791C0008791C0008791C0008791C00087B
:10011000791C0008791C0008791C0008791C00086B
:10012000791C0008791C0008791C0008791C00085B
:10013000791C0008791C0008791C0008791C00084B
:1001400000000000000000000000000000000000AF
:10015000791C0008791C0008791C0008791C00082B
:10016000791C0008791C0008791C0008791C00081B
:10017000791C0008791C0008791C0008791C00080B
:10018000791C0008791C0008791C0008791C0008FB
:10019000791C0008791C0008791C0008791C0008EB
:1001A000691B0008791C0008791C0008791C0008EC
:1001B000791C0008791C0008791C0008791C0008CB
:1001C000791C0008791C0008791C0008791C0008BB
:1001D000791C0008791C0008791C0008791C0008AB
:1001E000791C0008791C0008791C0008791C00089B
:1001F000791C0008791C0008791C0008791C00088B
:10020000791C0008791C0008791C0008791C00087A
:10021000791C0008791C0008791C0008791C00086A
:10022000791C0008791C0008791C000800000000F7
:10023000791C0008791C000800000000791C0008E7
:10024000791C0008791C0008791C0008791C00083A
:10025000791C0008791C0008791C0008791C00082A
:10026000791C0008791C0008791C0008791C00081A
:10027000791C0008791C0008791C000800000000A7
:10028000791C0008791C0008791C00080000000097
:0802900000000000791C0008C9
:1002980080F0004002E000BF81F0004142001FBF33
:1002A8005FEA410392EA030F7FEA226C7FEA236C3C
:1002B8006AD04FEA1262D2EB1363C1BFD218414031
:1002C80048404140B8BF5B42192B88BF704710F0C7
:1002D800004F40F4000020F07F4018BF404211F06A
:1002E800004F41F4000121F07F4118BF494292EAD2
:1002F800030F3FD0A2F1010241FA03FC10EB0C00FE
:10030800C3F1200301FA03F100F0004302D549428A
:1003180060EB4000B0F5000F13D3B0F1807F06D337
:1003280040084FEA310102F10102FE2A51D2B1F12F
:10033800004F40EBC25008BF20F0010040EA030024
:100348007047490040EB0000013A28BFB0F5000FA4
:10035800EDD2B0FA80FCACF1080CB2EB0C0200FA5A
:100368000CF0AABF00EBC25052421843BCBFD040A9
:100378001843704792F0000F81F4000106BF80F423
:1003880000000132013BB5E74FEA41037FEA226CE6
:1003980018BF7FEA236C21D092EA030F04D092F0B1
:1003A800000F08BF0846704790EA010F1CBF0020E5
:1003B800704712F07F4F04D1400028BF40F0004042
:1003C800704712F100723CBF00F50000704700F062
:1003D800004343F0FE4040F4000070477FEA226289
:1003E80016BF08467FEA23630146420206BF5FEA5A
:1003F800412390EA010F40F4800070474FF000035A
:1004080004E000BF10F0004348BF40425FEA000C20
:1004180008BF704743F0964301464FF000001CE0C8
:1004280050EA010208BF70474FF000030AE000BF1E
:1004380050EA010208BF704711F0004302D540425C
:1004480061EB41015FEA010C02BF844601460020CE
:1004580043F0B64308BFA3F18053A3F50003BCFAE9
:100468008CF2083AA3EBC25310DB01FA02FC634496
:1004780000FA02FCC2F12002BCF1004F20FA02F29D
:1004880043EB020008BF20F00100704702F1200290
:1004980001FA02FCC2F1200250EA4C0021FA02F2F1
:1004A80043EB020008BF20EADC7070474FF0FF0CF6
:1004B8001CEAD0521EBF1CEAD15392EA0C0F93EAF1
:1004C8000C0F6FD01A4480EA010C400218BF5FEA93
:1004D80041211ED04FF0006343EA501043EA511106
:1004E800A0FB01310CF00040B1F5000F3EBF490000
:1004F80041EAD3715B0040EA010062F17F02FD2A04
:100508001DD8B3F1004F40EBC25008BF20F00100E6
:10051800704790F0000F0CF0004C08BF49024CEAFD
:10052800502040EA51207F3AC2BFD2F1FF0340EA8F
:10053800C250704740F400004FF00003013A5DDC00
:1005480012F1190FDCBF00F000407047C2F1000241
:10055800410021FA02F1C2F1200200FA02FC5FEA2E
:10056800310040F1000053EA4C0308BF20EADC7078
:10057800704792F0000F00F0004C02BF400010F4EA
:10058800000F013AF9D040EA0C0093F0000F01F097
:10059800004C02BF490011F4000F013BF9D041EAB9
:1005A8000C018FE70CEAD15392EA0C0F18BF93EABB
:1005B8000C0F0AD030F0004C18BF31F0004CD8D1E5
:1005C80080EA010000F00040704790F0000F17BF6C
:1005D80090F0004F084691F0000F91F0004F14D0B2
:1005E80092EA0C0F01D142020FD193EA0C0F03D10A
:1005F8004B0218BF084608D180EA010000F000400D
:1006080040F0FE4040F40000704740F0FE4040F4E7
:10061800400070474FF0FF0C1CEAD0521EBF1CEA86
:10062800D15392EA0C0F93EA0C0F69D0A2EB0302A4
:1006380080EA010C49024FEA402037D04FF080533E
:1006480043EA111143EA10130CF000408B4238BF03
:100658005B0042F17D024FF4000C8B4224BF5B1A11
:1006680040EA0C00B3EB510F24BFA3EB510340EA5F
:100678005C00B3EB910F24BFA3EB910340EA9C000D
:10068800B3EBD10F24BFA3EBD10340EADC001B017D
:1006980018BF5FEA1C1CE0D1FD2A3FF650AF8B4221
:1006A80040EBC25008BF20F0010070470CF0004C2E
:1006B8004CEA50207F32C2BFD2F1FF0340EAC25059
:1006C800704740F400004FF00003013A37E792F01A
:1006D800000F00F0004C02BF400010F4000F013A78
:1006E800F9D040EA0C0093F0000F01F0004C02BF73
:1006F800490011F4000F013BF9D041EA0C0195E7DC
:100708000CEAD15392EA0C0F08D142027FF47DAF74
:1007180093EA0C0F7FF470AF084676E793EA0C0F64
:1007280004D14B023FF44CAF08466EE730F0004C62
:1007380018BF31F0004CCAD130F000427FF45CAFF2
:1007480031F000437FF43CAF5FE700BF42000ED2B8
:10075800B2F1FE4F0BD34FF09E03B3EB126209D4F4
:100768004FEA002343F0004323FA02F070474FF0AA
:100778000000704712F1610F01D1420202D14FF01F
:10078800FF3070474FF00000704700BF844641EAD1
:10079800000313F003036DD1403A41D351F8043BF1
:1007A80040F8043B51F8043B40F8043B51F8043B43
:1007B80040F8043B51F8043B40F8043B51F8043B33
:1007C80040F8043B51F8043B40F8043B51F8043B23
:1007D80040F8043B51F8043B40F8043B51F8043B13
:1007E80040F8043B51F8043B40F8043B51F8043B03
:1007F80040F8043B51F8043B40F8043B51F8043BF3
:1008080040F8043B51F8043B40F8043B51F8043BE2
:1008180040F8043B51F8043B40F8043B403ABDD251
:10082800303211D351F8043B40F8043B51F8043BF3
:1008380040F8043B51F8043B40F8043B51F8043BB2
:1008480040F8043B103AEDD20C3205D351F8043B82
:1008580040F8043B043AF9D2043208D0D2071CBF4E
:1008680011F8013B00F8013B01D30B880380604677
:10087800704700BF082A13D38B078DD010F00303ED
:100888008AD0C3F10403D21ADB071CBF11F8013B5D
:1008980000F8013B80D331F8023B20F8023B7BE7AC
:1008A800043AD9D3013A11F8013B00F8013BF9D2D7
:1008B8000B7803704B7843708B7883706046704771
:1008C80010B5054C237833B9044B13B10448AFF382
:1008D80000800123237010BD2000002400000000C8
:1008E8000051000808B5034B1BB103490348AFF397
:1008F800008008BD0000000024000024005100080A
:1009080000B58FB03422002101A804F01DFB274850
:1009180000231F22264980F83630C0E904323322EA
:10092800C0E90013C0E90233C26140F21323182260
:100938000921C0E908234FF4267240F22D23816172
:10094800C0E90A2340F2B12232230263838602F00F
:1009580083FA08B172B6FEE702464FF4F07C4FF412
:10096800207301A9CDF82CC00C93104805928DF87E
:100978003620CDE9012C4FF0640CCDE90323ADF806
:1009880034C0FF234FF4806CCDE90633CDF820C086
:100998004FF050434FF0050CCDE909C302F032FB8C
:1009A80008B172B6FEE70FB05DF804FB5C010024E5
:1009B80000100050114B1B7803B970472DE9F04126
:1009C8004021064601F0EAFD10F0FF0713D000258C
:1009D8000B4CDFF83080237840210B4A304608EB77
:1009E800C303013501F010FD2378EAB201339742C1
:1009F800DBB22370EFD8BDE8F08100BF000000240F
:100A0800E8000024EC000024C00000242DE9F04F89
:100A18000D461346802400EB810105F00F0287B0D4
:100A2800804604310D2A40F8254008D02A46002483
:100A3800013241F8044B02F00F000D28F8D10A46A4
:100A48006D013D4C42F8085B104604920022804537
:100A5800DFF8E8904A60DFF8E8B03A4A5AD24946E7
:100A6800A246174605935046DFF8DCE0DFF8DCC005
:100A78003D46374A5C4600260397CDE9011A8A4667
:100A88001AE084EA050A80EA0403B9F1010F0AEAC8
:100A9800000A03EA050344D08AEA050A0AEB0109B9
:100AA80052F8043F0136C3F1200369FA03F981447F
:100AB800AA462546044648465CF8041F4FEA16191C
:100AC8005EF8043F58F82110B9F1020F1944514457
:100AD8002BD0B9F1030FD4D160EA050352F8047F93
:100AE80001366340C7F12009402E0B4463FA09F927
:100AF8008144DDD108F14008049B039F83444345AA
:100B08002744DDE9011A2944CA44ACD88946544629
:100B18003A46059BC3E90094C3E902B207B0BDE8B1
:100B2800F08F634003EB0109BAE780EA040989EA18
:100B380005098944B4E700BF89ABCDEF01234567B8
:100B4800FEDCBA9876543210B4530008B452000848
:100B5800B451000870B5444C0546444EA4460FCE27
:100B6800ACE80F000FCEACE80F000FCEACE80F00DA
:100B780096E80F008CE80F002B6804F1400214215E
:100B8800204623646B686364AB68A364EB68E36422
:100B9800FFF73CFFA168D4E9002381F06A3182F0B5
:100BA8006A3283F06A33A1602169C4E90023E268EC
:100BB80081F06A30636982F06A31A26983F06A332E
:100BC8002061E16082F06A326361D4E9073183F021
:100BD8006A3381F06A31C4E906232162E36AA16AB3
:100BE80083F06A33626A81F06A31E36282F06A32C2
:100BF800A162216B6262224681F06A31D4E90D302C
:100C080083F06A3380F06A30C4E90C13E36B142173
:100C1800A063204683F06A33E363FFF7F7FE236897
:100C28002B7023681B0A6B706388AB70E378EB70DA
:100C380063682B7163681B0A6B71E388AB71E37996
:100C4800EB71A3682B72A3681B0A6B726389AB7282
:100C5800E37AEB72E3682B73E3681B0A6B73E3892F
:100C6800AB73E37BEB7370BD400000247851000840
:100C78002DE9F0478E4A90B0002301AE0D930893FA
:100C88000E9392E80300082286E8030040F25761B9
:100C98008848CDE909320791012307A9324601F0B6
:100CA8006BFB0121834801F09DFB0021814801F085
:100CB8006DFC04460028F8D1642001F043F87E4B0F
:100CC8005A7E12B910B0BDE8F0877C4A03A81470A8
:100CD8002246597961F30702997961F30F22D9798C
:100CE80061F31742997A61F31F62D97A0392224617
:100CF80061F30702197B61F30F22597B61F31742F5
:100D0800997B61F31F62D97B0492224661F3070243
:100D1800997C61F30F22D97C61F31742197D61F345
:100D28001F62597D0592224661F30702997D61F39E
:100D38000F22D97D9B7E61F3174263F31F620692EF
:100D4800FFF708FF08220D940E9407A90A929DF850
:100D58001B20BDF80C305748ADF809309DF80E300F
:100D6800DDF80F908DF80B3040F25763BDF813A0F3
:100D780007930123DDF81580BDF81970CDE9084403
:100D880062F307049DF8162062F30F249DF81720DC
:100D980062F317449DF8182062F31F64484A0192D1
:100DA80002228DF80820324601F0E6FA0121414876
:100DB80001F018FB00213F4801F0E8FB0546002838
:100DC800F8D10A2000F0BEFF42F28B1307A9324681
:100DD800ADF80430082337480A9340F25763CDF83A
:100DE800069007930123ADF80AA00D950E95CDE95D
:100DF800085501F0C1FA01212E4801F0F3FA00214B
:100E08002C4801F0C3FB05460028F8D10A2000F061
:100E180099FF42F28B2207A90123ADF8042008228A
:100E280024480A9240F25762CDF80680079232466B
:100E3800ADF80A700D950E95CDE9085501F09CFAAC
:100E480001211C4801F0CEFA00211A4801F09EFB4E
:100E580005460028F8D10A2000F074FF082340F264
:100E68005760CDF8064042F28B3407A90A93324600
:100E78000123ADF80A700D9509950E95ADF804405B
:100E8800CDE907050B4801F077FA0121094801F07F
:100E9800A9FA0021074801F079FB0028F9D10A20B6
:100EA80000F050FF034801F027FA10B0BDE8F087C2
:100EB8006C51000804020024EC0000240000002407
:100EC8008B101227294B30B593E803008DB0CDE97C
:100ED800000127486C4601F0F3F9642000F032FF66
:100EE8000421002208238DF8041040F2014100205B
:100EF8000392029100210593012304926A46CDE9E9
:100F0800080102A91A4801F037FA0121184801F02E
:100F180069FA0021164801F039FB0028F9D10825A3
:100F280040F20143224600240DEB050105950025FA
:100F38008DF8040002930123CDE903000C48CDE9A4
:100F4800084501F019FA0121094801F04BFA00217E
:100F5800074801F01BFB0028F9D1322000F0F2FE0F
:100F6800034801F0C9F90DB030BD00BF18510008A1
:100F78000402002430B5A1B04C2200210CA803F0D3
:100F8800E3FF2022002104A803F0DEFF022002F084
:100F980005F9374B0021374A0191D96A21F001013F
:100FA800D962DB6A03F001030193936943F4404378
:100FB8009361936903F440430193019B93699904F6
:100FC800FCD52D4BD3F8F41041F00201C3F8F4100E
:100FD8000021D3F8F43003F002030293029B03913B
:100FE8009169234B41F440419161926902F4404276
:100FF8000392D96A1F4A41F00101D962DB6A03F002
:1010080001030393039B93699B04FCD505210124E9
:101018004FF48035C02202230CA81B911993CDE907
:101028000C45CDE917120425002208241A951C94B2
:10103800CDE91533CDE91D2202F0D4F8034608B1F5
:1010480072B6FEE73F220693402329460492032204
:10105800099304A80B930592CDE907434FF48063E5
:101068000A9302F05FFC08B172B6FEE721B030BD0A
:1010780000040058004802580044025810B5B0B0A7
:10108800A02200210A2408A803F05EFF0C480021D2
:101098003C22022303924FF00052029312931C92B7
:1010A800CDE900010320C021CDE906016846CDE95C
:1010B800043402F041FE08B172B6FEE730B010BD4C
:1010C80000800001CB4B5A6912F400322DE9F0433D
:1010D8009BB011D1BFF34F8FBFF36F8FC3F850226E
:1010E800BFF34F8FBFF36F8F5A6942F400325A61D2
:1010F800BFF34F8FBFF36F8FBE494B6913F4803333
:1011080024D1C1F88430BFF34F8FD1F8805043F613
:10111800E076C5F34E34C5F3C905640104EA060058
:101128002B4640EA8372013BC1F860225A1CF8D171
:10113800203C14F1200FF1D1BFF34F8F4B6943F4DA
:1011480080334B61BFF34F8FBFF36F8FAA4D0024DD
:1011580000F0B6FD4FF00108FFF70CFF0226FFF77D
:101168008DFF179422465021A4480D274FF00409FB
:10117800CDE91344CDE91544D5F8E03043F4807344
:10118800C5F8E030D5F8E03003F480730393039B8F
:10119800D5F8E03043F00203C5F8E030D5F8E03088
:1011A80003F002030493049BD5F8E03043F4806312
:1011B800C5F8E030D5F8E03003F480630593059B6B
:1011C800D5F8E03043F04003C5F8E030D5F8E0301A
:1011D80003F040030693069BD5F8E03043F0040380
:1011E800C5F8E030D5F8E03003F004030793079B17
:1011F800D5F8E03043F00103C5F8E030D5F8E03029
:1012080003F001030893089BD5F8E03043F010037E
:10121800C5F8E030D5F8E03003F010030993099BD6
:10122800D5F8E03043F40073C5F8E030D5F8E03085
:1012380003F400730A930A9BD5F8E03043F00803DF
:10124800C5F8E030D5F8E03003F008030B930B9BAA
:10125800D5F8E03043F08003C5F8E030D5F8E03049
:1012680003F080030C930C9BD5F8E03043F0200387
:10127800C5F8E030D5F8E03003F020030D930D9B5E
:1012880001F0D6FD224660215D4801F0D1FD5022D3
:10129800112313A95948139215941694149301F025
:1012A800B5FB602313A956481393CDF85080CDE9B8
:1012B800154401F0ABFB4FF4007313A9514817977D
:1012C800CDE91336CDE9154401F0A0FB43F6FF73D1
:1012D80013A94D481393CDE9144401F097FB4FF43B
:1012E8005C4313A949481393CDE91464CDE9164723
:1012F80001F08CFB4FF488134FF4404013A9159468
:10130800CDE91303404801F081FB4FF4C05313A902
:101318003F4813930A2316941793CDE9146401F0F8
:1013280075FB2A2313A93A481393CDE9144401F015
:101338006DFB4FF4406E122313A93148CDF85C9031
:10134800CDE913E3CDE9154401F060FB502213A960
:101358002F48139217974FF440571694CDE9146409
:1013680001F054FB4FF4006213A92A481392CDE907
:10137800144401F04BFB122313A926481493CDF80B
:101388005C901397CDE9154401F040FB4FF480734E
:1013980013A91E481393149617964FF0FF36CDE9FC
:1013A800154401F033FB13A915481397CDE91448E8
:1013B80001F02CFB22462146282000F0EDFCD5F850
:1013C800D8300C4A43EA0803C5F8D830D5F8D830E5
:1013D80003EA08030293029BD268C2F30222C2F115
:1013E800070302EB09014B4528BF4B46062906FABD
:1013F80003F311E000ED00E0004402580020025819
:10140800000402580018025800080258001C02582C
:1014180000000258000C025888BFD41E2F4ADB4334
:10142800A3401B01DBB282F80B334FF40069C2F80A
:1014380000902B4A01272B4B042403254FF0020868
:1014480013600023104617829374D3635366976121
:101458009764976517665464D464546594661564F4
:101468001565D565C2F82080C2F83080C2E902331C
:10147800C2E90D330F23D361D3622923C2E9097767
:10148800536100F02BFD08B172B6FEE70723102266
:10149800179513A9144D149316934023C5F820905B
:1014A800DFF84890E861A8621594EC60CDF84C80AC
:1014B800C5F80090C5E904234FF4C073AB614FF43D
:1014C8008053C5E9017028466B62CDE9188803F09E
:1014D800B3FB044660B172B6FEE700BF00E100E06E
:1014E8000402002400A000402801002440410052CA
:1014F800FFF706FA9D4B0E9413A915949C48CDE965
:101508000F44CDE91144CDE91644D3F8E82042F060
:101518000102C3F8E820D3F8E82002F001020092A3
:10152800009AD3F8E02042F00102C3F8E020D3F893
:10153800E030189703F001030193019BCDE913787C
:1015480003F018FC8B4B0EA94FF08040D3F800280D
:1015580022F0FF0242F01202C3F800281A6922F0B2
:10156800C0021A611A6942F440321A611A6922F4F7
:1015780090721A611A6922F400721A611A6942F4A7
:1015880080621A611A6922F4C05242F480521A61C8
:101598001A6922F4C04242F480421A615A6A42F03F
:1015A80004025A625A6A22F0030242F001025A62A5
:1015B8001A6922F0C0721A611A6922F4C0021A610B
:1015C8001096ADF838400F94119403F04DFC4FF08D
:1015D8008043694A2846196821F080011960996892
:1015E8000A409A605A6822F070025A609A6822F09B
:1015F80080029A609A6922F0030242F001029A611D
:101608009A6922F00C029A619A6922F0F0029A61B2
:101618001A6A22F00A021A6200F0C8F9574B44F617
:10162800D411C5F800906FF070420A20196444F68E
:10163800D45159649A64DA6446F209021A6500F0D2
:1016480081FB2B680A224E49A4464E4D1A6140F28E
:10165800EB1208681A6146F20C0200F27C701A61FB
:101668004FF4FA725A61A5FB0C31A0F5F062002321
:1016780049080C02642B03F1010374DDB3F5967F6E
:1016880042F8041FF6D1A0F53473090443F8041F87
:101698008342FBD10CF1010C03F5F060BCF5207F0F
:1016A800E1D14FF040533849384A43F8041B93427C
:1016B800FBD14FF0FF21364A43F8041B9342FBD17C
:1016C80000221320114600F067FB00221520114666
:1016D80000F062FB132000F09BFB152000F098FB44
:1016E8002C4800F0EDFD002201212A4800F064FF9B
:1016F8004FF4FA7000F026FBFFF7BAFAFFF7E2FBA7
:10170800244800F0F9FD194B01224021D3F8D840B4
:1017180021481443C3F8D840D3F8D8301340139362
:10172800139B01F085FB4FF0804364201A6A42F056
:1017380001021A621A6842F001021A6000F002FB04
:10174800282000F065FB642000F0FCFAFFF7D8F8C9
:10175800062000F05DFB074A136943F0100313618C
:10176800FFF7CEF8FEE742F8044F83E7004402583B
:101778000000025800000240F8BFFEFF004100527E
:1017880004000024ABAAAAAA0000FFFF78050030D5
:10179800F00A0030040200240004025872B6FEE782
:1017A800074B82B0D3F8F42042F00202C3F8F420C9
:1017B800D3F8F43003F002030193019B02B07047A1
:1017C800004402581E4B0268D0B59A4288B04FF0C8
:1017D8000004CDE90244CDE90444069401D008B0E0
:1017E800D0BD184B4FF44076022702A9D3F8EC205D
:1017F800154842F48072C3F8EC20D3F8EC2002F4C8
:1018080080720092009AD3F8E02042F00202C3F8F6
:10181800E020D3F8E03003F0020301930923019A92
:101828000693CDE9026701F0F1F82246072113205B
:1018380000F0B2FA132000F0EBFA08B0D0BD00BFF8
:1018480000A00040004402580004025870B5BAB025
:1018580000210446C0220AA80991CDE90511CDE965
:10186800071103F071FB4B4B22689A4201D03AB042
:1018780070BD022301224FF0005400251693062163
:1018880014920F2217934FF440630AA81591CDE9DB
:1018980018234FF40073CDE90A451A9302F04CFA65
:1018A800002874D13C4BFC2100240226D3F8E42004
:1018B8000E253A4842F00802C3F8E420D3F8E420A1
:1018C80002F008020092009AD3F8E02042F4806205
:1018D800C3F8E020D3F8E02002F480620192019A74
:1018E800D3F8E02042F48072C3F8E020D3F8E02077
:1018F80002F480720292029AD3F8E02042F4007255
:10190800C3F8E020D3F8E02002F400720392039AAF
:10191800D3F8E02042F08002C3F8E020D3F8E030AA
:10192800059105A903F08003069609950493049B85
:10193800CDE9074401F06AF84DF2032305A91848D8
:101948000593CDE90664CDE9084501F05FF84FF647
:10195800FB5305A913480593CDE90664CDE908456D
:1019680001F054F84FF4085305A90F48059306965B
:101978000995CDE9074401F049F822462146582047
:1019880000F00AFA582000F043FA3AB070BDFFF7A9
:1019980005FF87E70010005000440258002802584D
:1019A8000020025800240258001C0258284B00222C
:1019B800F0B51C6889B00492002C47D1254A012152
:1019C80003260C2519600227D2F8D430224843F4A4
:1019D8008053C2F8D430D2F8D4304FF683720596CB
:1019E80003F48053069501930223019902A9CDE9D6
:1019F800022301F00BF848F2331302A917480293A7
:101A080006950397CDE9044601F000F84CF20373FC
:101A180002A913480293CDE90374CDE9056500F0E6
:101A2800F5FF4FF63F0302A90E480293CDE9037470
:101A3800CDE9056500F0EAFFE02302A90A4803970B
:101A480006950293CDE9044600F0E0FF09B0F0BD29
:101A5800A40200240044025800100258001802583A
:101A6800000C025800140258001C0258FEE700BF80
:101A7800FEE700BFFEE700BFFEE700BFFEE700BFCE
:101A8800704700BF704700BF704700BF00F048B9FB
:101A9800014B20229A60704700000240014800F084
:101AA800EDBD00BF0402002438B5294A0821294B9E
:101AB8002024156901201A6C22F001021A644FF0E3
:101AC800B0429C6098609960D2F8882011040FD5C4
:101AD800214B1A68C82A01D900221A604FF48040A5
:101AE80001F0ACF94FF40040BDE8384001F0A6B968
:101AF800AA05F3D418484FF08042184C01689C613D
:101B0800C1EB0111C90101F15041D961116A41F0DC
:101B18000101116259696FF30F0141F4A071596114
:101B2800D16841F48071D160D16841F40071D1600D
:101B3800116841F0010111601A6942F001021A614D
:101B48000368D12BCAD8036801330360C6E700BF16
:101B58000008025800000240A80200241008025899
:101B6800014801F0EDB900BF5C010024234A136865
:101B780003F00F03062B10B405D8136823F00F03E6
:101B880043F0070313601E4B00241E4A19681B48C4
:101B980041F0010119601C6119680A401A60036864
:101BA8001B0705D5036823F00F0343F00703036001
:101BB800134B002214491548154C9A61DA611A62D0
:101BC8009C62D86219635A639963DA6319645A6428
:101BD8001968104821F4802119601A6603686FF3A8
:101BE8000F03B3F1005F03D20B4B0122C3F80821A6
:101BF8000A4B43F2D20210BC1A6070470020005210
:101C0800004402587FEDF6EA800201010000FF015E
:101C1800000202020010005C0080005100400052E7
:101C2800DFF834D0FFF7A2FF0C480D490D4A002316
:101C380002E0D458C4500433C4188C42F9D30A4A79
:101C48000A4C002301E013600432A242FBD303F0E4
:101C5800C9F9FFF737FA704700000824000000248C
:101C68001C0000240C55000820000024480400240F
:101C7800FEE700000F4B1B780BB90120704710B529
:101C880004464FF47A700C4AB0FBF3F31068B0FBCB
:101C9800F3F000F0CBF80F2C00D808B1012010BDEC
:101CA800002221464FF0FF3000F076F8034B002069
:101CB8001C6010BD100000240C0000241400002437
:101CC80010B50320124C00F055F801F079FD114BC6
:101CD80011499A699B69C2F3032203F00F03A25CBE
:101CE800E35C02F01F020D4C03F01F03D04020FA02
:101CF80003F3206008200B60FFF7BCFF10B101243C
:101D0800204610BD0446FFF74BFD204610BD00BF1E
:101D1800B854000800440258080000240C000024AD
:101D2800034A044B11681B780B441360704700BFCB
:101D3800AC02002410000024014B1868704700BF53
:101D4800AC02002438B50446FFF7F6FF0546631CCD
:101D580002D0044B1B781C44FFF7EEFF401BA04247
:101D6800FAD338BD10000024014B1868000C7047E6
:101D78000010005C06494FF6FF0C0002054BCA68CC
:101D880000F4E06002EA0C0210430343CB607047A2
:101D980000ED00E00000FA051A4BDB68C3F30223EC
:101DA80000B5C3F1070E03F1040CBEF1040F28BF00
:101DB8004FF0040EBCF1060F1AD9A3F1030C4FF033
:101DC800FF3303FA0CF322EA03024FF0FF33002833
:101DD80003FA0EF321EA030303FA0CF343EA0203BE
:101DE8004FEA0313DBB206DB074A13545DF804FB22
:101DF80000229446E9E700F00F00044A13545DF806
:101E080004FB00BF00ED00E000E400E014ED00E09A
:101E1800002807DB012300F01F01034A40098B401B
:101E280042F82030704700BF00E100E0431EB3F1E4
:101E3800807F01D3012070474FF0E0220020054940
:101E48004FF0F00C5361072381F823C090611361B0
:101E5800704700BF00ED00E0F0B5D1E901740E69EC
:101E68000D68002F33D1264346EA8546D1E906544A
:101E78002C434D692C430D6A44EA0564856E05FBC5
:101E880003F3D0F88450C86845F8236005EB830550
:101E980044EA0040104B6860C868185CB0B14FF065
:101EA800000C907805EB0C0ED7780CF1040C0004AC
:101EB80016785478043240EA0760304340EA042038
:101EC800CEF80800C868185C6045EAD8F0BD2E4313
:101ED800264346F08046C9E7C85400082DE9F04F6C
:101EE80099B004464C22484905A8FEF74FFC002C3F
:101EF8007AD02368454A934200F0818094F898206C
:101F080002F0FF01002A73D09A6922F010029A6148
:101F1800FFF712FF054604E0FFF70EFF401B0A28F3
:101F280059D823689A691107F6D49A6942F00102D0
:101F38009A61FFF701FF054604E0FFF7FDFE401B2D
:101F48000A2848D823689A69D207F6D59A6942F0D0
:101F580002029A61227C012A9A690CBF22F040028F
:101F680042F040029A61627C012A9A690CBF42F4ED
:101F7800804222F480429A61A27C012A9A690CBFAD
:101F880022F4805242F480529A619A69D4E902019B
:101F980022F44072012942EA00029A619A6922F009
:101FA800A4029A611A6922F010021A6130D000293D
:101FB80032D002299A6900F0768142F08002032922
:101FC8009A611A6942F010021A6125D19A6942F0A1
:101FD80020029A6120E0D4F89C30032243F00103E8
:101FE800C4F89C3084F89820012019B0BDE8F08F1F
:101FF800204684F89910FFF7E5FB236884E702F58B
:10200800807262607AE700BF2051000800A000409B
:102018009A6942F004029A61B0F5407FD4E9061249
:1020280002F1FF3201F1FF314FEA022242EA416236
:10203800216A01F1FF3142EA0102616901F1FF31D0
:1020480042EA0142DA610ED1A16AD4E90B020139F0
:10205800013A0138120142EA00220A43616A013951
:1020680042EA0142DA60D4F860B0BBF1000F05D053
:10207800D3F8C020616E0A43C3F8C020E26DA16E98
:102088001BEB020F0292039109D0D3F8C8200DEB85
:10209800810122F0070249690A43C3F8C820D4E93C
:1020A8001085B8F1000F09D0D3F8BC200DEB8501DD
:1020B80022F0070249690A43C3F8BC20D4E9126038
:1020C80056B1D3F8BC200DEB800122F070024969AB
:1020D80042EA0112C3F8BC20D4E914275AB1D3F854
:1020E800BC100DEB870C21F4E061DCF814C041EA68
:1020F8000C21C3F8BC106E498B4200F0CB8007FB63
:1021080002F2D4F834E000FB06FA00200192012222
:10211800C4F89C0005FB08F9664D84F89820D3F8AC
:102128008420C4F894002A40D4F838C0E76B42EA07
:102138008E02C3F88420D3F8842022F47F0242EA76
:102148000C42C3F884200EEB0C02D3F88810294007
:1021580041EA820102EB4702C3F88810D3F88810DD
:1021680021F4FE0141EA0741C3F88810D3F8A01012
:10217800294041EA82014A44C3F8A010D3F8A010CC
:1021880021F4FE0141EA0841C3F8A010D3F8B010C9
:10219800294041EA8201C3F8B01002EB0A01D3F8E2
:1021A800B02022F4FE0848EA0646C3F8B060D3F827
:1021B800AC20A66D2A4042EA8102C3F8AC20019AFD
:1021C8001144D3F8F0202A4042EA810201EB46018B
:1021D800C3F8F020D3F8F02022F47C1242EA064239
:1021E800C3F8F020344A7244DDF804E0920002EBB0
:1021F8008C0C0CEBC70707EB890909EB8A08D3F8A5
:10220800C0A00AEA050A029D08EB8E0E4AEA81017F
:10221800DDF80CA00EEBC606C3F8C010D3F8C0104A
:1022280021F47C1141EA05410AFB05F5C3F8C01009
:1022380006EB85050AFB0BF1D3F8C0A02AF07C5AFF
:1022480005EB81014AEA0B6AC3F8C0A01B4BC4F82E
:1022580088509942E266C4F89010C4E91CC7C4E9E2
:102268001E98C4E920E60BD88A4205D242F8040B2E
:10227800D4F890309A42F9D3002019B0BDE8F08F15
:10228800D4F89C30032243F02003C4F89C3084F82F
:102298009820A9E6D4F804C0DCF8081021F003015E
:1022A800CCF808102BE742F020029A61B4E600BF90
:1022B80000A000400300FFFF002B0010FCD30040EB
:1022C80090F898200346012A07D0D0F89C200120D6
:1022D80042F00402C3F89C20704710B4022204683C
:1022E800002180F89820A269084622F00102A26124
:1022F80010BCC3F89C10704790F898308446022BA5
:1023080027D10268936943F0010393619369D80761
:1023180006D4332301E0013B23D09169C907FAD5DC
:10232800936923F0100393619369180706D5332343
:1023380001E0013B15D091690907FAD4936900209F
:10234800012143F002039361CCF894008CF89810B3
:102358007047D0F89C3043F00803C0F89C30012047
:102368007047DCF89C300322012043F00103CCF8CD
:102378009C308CF89820704770B590F898E00EF172
:10238800FF3EBEF1010F16D893FAA3F40668B4FA1B
:1023980084F4D6F8C050C5F3054EA64513D9D6F82F
:1023A800CC401C4016D0D0F89C3043F04003C0F815
:1023B8009C30012070BDD0F89C3043F00203C0F877
:1023C8009C30012070BDD0F89C3043F02003C0F849
:1023D8009C30F6E793FAA3F3B3FA83F3FFF73CFDD7
:1023E800204670BD90F898200346022A07D0D0F8FE
:1023F8009C20012042F00802C3F89C207047036823
:102408000020C3F8D0107047F0B590F89840022C1F
:1024180056D1402963D041297FD0046D8C4257D9C9
:10242800446D0027C56F01FB04F405EB84052C6897
:1024380004F0804454602E68002C40F09380C6F36A
:102448008A4616602C6804F0005494602C6804F0E6
:1024580000441461AC88D461EC8804F00F04D460A3
:102468006E6806F4801656616E6806F4001696616A
:10247800EE7906F07F061662434E16F804C06C68C3
:10248800E40F5462BCF1000F0ED0013B05F1070EBA
:10249800AEF1060C1EF8014F03F8014FACEB050C2A
:1024A800D468345D6445F3D8402903685DD0412978
:1024B80066D01F295DD801228A40C3F8982056E0CB
:1024C800D0F89C3043F00803C0F89C300120F0BDE0
:1024D800D0F89C3043F02003C0F89C30F6E704683D
:1024E800D4F8A05015F4FE0FF2D0D4F8A4506E061C
:1024F80031D0D4F8A45015F0807502D0D4F8A0508B
:10250800ED0FD4F8A470446CC7F305272F44456F2A
:1025180007FB04F405EB840589E70468D4F8B05098
:1025280015F4FE0FD4D0D4F8B4506D0613D0D4F8F7
:10253800B45015F0807502D0D4F8B050ED0FD4F82F
:10254800B470C46CC7F305272F44856F07FB04F4E8
:1025580005EB84056BE7D0F89C3043F48073C0F832
:102568009C30B3E726F060466BE7C3F8A8700020FC
:10257800F0BD01F01F0101228A40C3F89C20F6E754
:10258800C3F8B870F3E700BFC85400080368D3F86D
:10259800CC000840003818BF012070474029036864
:1025A80004D0D3F8B40000F07F007047D3F8A4003B
:1025B80000F07F00704700BF034690F8980001388C
:1025C800012807D9D3F89C20012042F00202C3F861
:1025D8009C2070471868836D0B4210B41ED1C36DE0
:1025E80043F00103C3658C0504D5D0F8E0301343EC
:1025F800C0F8E0304B0504D5D0F8E4301343C0F8F8
:10260800E4300C4B446D0B400B4A234310BC43652C
:102618000020536943EA917353617047836D31EA2F
:10262800030302D00323C365DDE7C36D43F0020350
:10263800C365D8E7FFFFCF3F00A80040704700BF41
:10264800704700BF704700BF704700BF704700BFAA
:10265800704700BF704700BF704700BF704700BF9A
:10266800704700BF704700BF704700BF704700BF8A
:10267800704700BF704700BF704700BFD0F800C068
:10268800BF492DE9F04F0B6983B04A690446DCF86D
:102698005050DCF85460134005EA060ADCF8505044
:1026A800DCF854609A070AF4704A05EA0609DCF86F
:1026B8005050DCF8546009F00F0905EA0608DCF808
:1026C8005060DCF85450DCF8507008F0F0082E40E8
:1026D800DCF854502F40DCF8545006F07156DCF802
:1026E80050B015F4807F07F0607703D01BF4807F2B
:1026F80040F0FA80690503D51BF4806F40F005812E
:10270800002A40F08480BAF1000F71D1B9F1000FAE
:1027180054D1B8F1000F5FD1280503D51BF4006F21
:1027280040F00E81A90503D51BF4007F40F0158108
:102738002A0303D51BF4002F40F02681EB0303D5B1
:102748001BF4803F40F02D81680303D51BF4802FD4
:1027580040F0BD80A9030FD51BF4003F0CD04FF407
:1027680000330022CCF85030854B1A61D4F89C30E5
:1027780043F08003C4F89C30A7B94EB1804B0022C7
:10278800CCF850601A61D4F89C303343C4F89C30BC
:102798007C4B9C4553D0D4F89C30002B49D103B0D6
:1027A800BDE8F08F764B0022CCF8507039462046B1
:1027B8001A61FFF759FFD4F800C0DEE7704B00221A
:1027C800CCF85090494620461A61FEF7F3F8D4F841
:1027D80000C0B8F1000F9FD0694B0022CCF85080A0
:1027E800414620461A61FFF72DFFD4F800C093E751
:1027F800634B0022CCF850A0514620461A61FFF7DF
:102808001FFFD4F800C0B9F1000F82D0D6E71146F7
:10281800002203F003032046CCF85020584A1361E5
:10282800FFF70CFFD4F800C0BAF1000F3FF46EAF09
:10283800DEE72046FFF716FF03B0BDE8F08F6368B8
:102848009A689207A7D0196A586A1A6A0140586AA2
:102858001F6A02EA00085A6A1E6A11F00F0107EAA5
:1028680002075A6A1D6A08F0300806EA02065A6A20
:1028780007F4C077D3F8249005EA020506F4FC466D
:10288800D3F820A005F4F02540F09F80B8F1000FA0
:1028980040F0B18019F0400F03D01AF0400F40F01B
:1028A8009980002F40F08A8036B163681E62D4F8A0
:1028B8009C303343C4F89C30002D3FF46CAF636800
:1028C8001D62D4F89C302B43C4F89C3063E74FF466
:1028D800802300222046CCF85030294B1A61FFF79C
:1028E800BDFED4F800C035E74FF4807ECCF850E048
:1028F8004FF0000CCDE90032C1F810C0FFF7B0FE70
:10290800D4F800C0DDE90032F4E6DCF8DC004FF46E
:10291800806EDCF8E410CCF850E04FF0000C014079
:102928001748CDE90032C0F810C02046FFF790FEE6
:10293800D4F800C0DDE90032002A3FF4E4AE66E7CF
:102948004FF4006300222046CCF850300C4B1A613B
:10295800FFF77AFED4F800C0E4E6DCF8D8104FF4AC
:102968000072DCF8E0302046CCF8502000221940F4
:10297800034B1A61FFF76AFED4F800C0D8E600BF1F
:1029880000A8004000A000404FF400230022204689
:10299800CCF850301C4B1A61FFF75CFED4F800C02D
:1029A800CCE64FF4803300222046CCF85030164B4A
:1029B8001A61FFF751FED4F800C0C5E663683946CE
:1029C80020461F62FFF758FE6EE720461962FFF7A0
:1029D8004DFE5BE763684FF0400C2046D96BDA6B1D
:1029E800090CC3F820C002F03F02FFF743FE002F96
:1029F8003FF45AAFE2E7636841462046C3F82080B7
:102A0800FFF736FE46E700BF00A800400B68002B22
:102A180000F0F381864A90424FF000022DE9F04F12
:102A28004FF0010B85B000F000814FF0B04C0BFA6D
:102A380002FE1EEA030A00F0A2804D685400032635
:102A480005F00307A64007F1FF38F643B8F1010F78
:102A580040F29D80032F0BD0D0F80C80D1F808E00D
:102A680008EA06080EFA04FE4EEA080EC0F80CE062
:102A780007FA04F4076815F4403F06EA070644EA33
:102A8800060404607BD06B4E02F003074FF00F0E74
:102A9800D6F8F440BF0044F002040EFA07FEC6F868
:102AA800F440D6F8F44022F0030606F1B04604F0EC
:102AB800020406F580660394039CB46824EA0E04B5
:102AC800DFF874E1704500F0AA80DFF870E1704526
:102AD80029D0DFF86CE1704500F08981DFF864E106
:102AE800704500F08B81DFF860E1704500F0798176
:102AF800DFF858E1704500F08781DFF854E1704550
:102B080000F08881DFF84CE1704500F08981DFF83A
:102B180048E170450CBF4FF0090E4FF00A0E0EFA4F
:102B280007F73C4304E04FF0020E0EFA07F73C4368
:102B3800B460EF02DCF800406FEA0A064CBF4AEACC
:102B480004043440AF02CCF80040DCF8044054BF21
:102B580034404AEA0404AF03CCF80440DCF884406B
:102B680054BF34404AEA0404ED03CCF88440DCF84E
:102B7800804054BF34404AEA0404CCF88040013213
:102B880033FA02F47FF453AF05B0BDE8F08FD0F804
:102B98000890022FD1F80C8009EA060908FA04F80F
:102BA80048EA0908C0F80880C5F30018D0F804906E
:102BB80008FA02F829EA0E0E48EA0E0EC0F804E0F8
:102BC800D1F808E0D0F80C800EFA04FE08EA0608EE
:102BD8004EEA080EC0F80CE07FF44AAF4FEAD2087C
:102BE80002F0070E00EB88084FEA8E0ED8F8209006
:102BF800CDF80090D1F8109009FA0EF9CDF80490AC
:102C08004FF00F0909FA0EFEDDF8009029EA0E09C7
:102C1800DDF804E04EEA090EC8F820E028E74FF096
:102C2800010E0EFA07F73C4382E74FF0B04570E01B
:102C380000000258004402580004025800080258D4
:102C4800000C0258001002580014025800180258CC
:102C5800001C02580020025800240258032C0BD0F4
:102C6800D0F80C80D1F808E00AEA08080EFA07FE46
:102C78004EEA080EC0F80CE0BC40076816F4403F66
:102C880007EA0A0744EA070404603DD0674F4FF09B
:102C98000F0E16F4801FD7F8F44044F00204C7F86A
:102CA800F440D7F8F44022F0030704F0020407F1D7
:102CB800B047039407F58067039C02F003044FEACA
:102CC80084040EFA04F4D7F808E02EEA0404BC6081
:102CD8006FEA0C072C6840F081803C4016F4001F16
:102CE8002C606C6877D13C4016F4003F6C60D5F8D6
:102CF80084406DD13C40F603C5F88440D5F8804047
:102D080063D43C40C5F88040013233FA02F43FF402
:102D18003BAF0BFA02FE13EA0E0CF5D04E685700D3
:102D28004FF0030806F0030408FA07F86FEA080AE8
:102D380004F1FF38B8F1010F90D8D0F80890022CB0
:102D4800D1F80C800AEA090908FA07F848EA0908DC
:102D5800C0F80880C6F30018D0F8049008FA02F802
:102D680029EA0E0E48EA0E0EC0F804E0D0F80C80EE
:102D7800D1F808E00AEA08080EFA07FE4EEA080E3B
:102D8800C0F80CE07FF478AF4FEAD20802F0070EE3
:102D980000EB88084FEA8E0ED8F82090CDF8009006
:102DA800D1F8109009FA0EF9CDF804904FF00F09F8
:102DB80009FA0EFEDDF8009029EA0E09DDF804E0B4
:102DC8004EEA090EC8F820E056E744EA0C0499E7F1
:102DD8004CEA04048FE744EA0C0485E744EA0C044F
:102DE8007CE74FF0050E0EFA07F73C43A0E64FF0DC
:102DF800030E0EFA07F73C439AE670474FF0040EAD
:102E08000EFA07F73C4393E64FF0060E0EFA07F763
:102E18003C438DE64FF0070E0EFA07F73C4387E672
:102E28004FF0080E0EFA07F73C4381E600440258BB
:102E380002B9090481617047704700BF4FF0B04282
:102E4800D2F88810014200D1704708B5C2F888004E
:102E5800FFF7F2FF08BD00BF002867D038B590F82B
:102E6800A130044603F0FF02002B5AD0A0680221CB
:102E7800D4E9003284F8A1100243E16898690A4352
:102E8800216920F070400A432949986198690243F2
:102E980060699A619A680A409A609A6842EA0042B0
:102EA800A0690243E0699A60DA680A40DA60DA6881
:102EB80042EA0042206A0243606ADA601A690A40FC
:102EC8001A611A6942EA0042A06A0243E06A1A617A
:102ED8005A690A405A615A69216B42EA00420A4318
:102EE8005A61DA6A94F8350002F07F4294F8361095
:102EF800DA62DD6A94F834202A4342EA002200208C
:102F080042EA0142DA625A6B42F006025A639A694F
:102F180042F001029A610123C4F8A40084F8A130A8
:102F280038BD80F8A020FEF791FC9FE7012070478C
:102F380000F800F0704700BF704700BF704700BF3F
:102F4800036870B59D6B04465E6B6A0701D571070F
:102F58001DD4AA0701D5B3072DD4E80701D5F10779
:102F680040D42A0701D5330700D470BD2368082050
:102F7800012500215A6B22F008025A63D8632046C3
:102F880084F8A15084F8A010FFF7D8FF70BD5A6BE1
:102F980022F004025A630422DA63D0F8A43043F022
:102FA8000103C0F8A430002380F8A12080F8A030E5
:102FB800FFF7C0FFCDE7236820465A6B22F00202D4
:102FC8005A630222DA630422D4F8A43043F00203DD
:102FD800C4F8A430002384F8A12084F8A030FFF7B7
:102FE800A9FFBAE7236820465A6B22F001025A6308
:102FF8000122DA63002384F8A12084F8A030FFF7C7
:103008009BFFAEE790F8A030012B00F0C1800223AF
:103018002DE9F04F4FF0340ED0F8009083B080F8CF
:10302800A1300EFB020ED201D9F80C300C4602F189
:1030380084060D46C3F30B4B804609EB060C0EF1D4
:10304800380EDFF850A1DCF8043003F47043019324
:103058000FCCAEE80F000FCC6F68AEE80F000FCCB6
:10306800AEE80F002368BB442A68CEF80030019B05
:10307800511CE868CCF80430D9F80C30D5F818E0C1
:10308800C3F30B430B4443EA0B434FF0000BCCF85C
:103098000430D9F80C10DCF80830C1F30A0103F445
:1030A80070430144CCF80830AB68D9F80C00013300
:1030B800C0F30A00034443EA01432969CCF8083005
:1030C8000729DCF8103023F00703CCF81030CCF8CF
:1030D8001010DCF8183095F8320095F83140CCF82B
:1030E80018B095F8303043EA0E6343EA042343EA04
:1030F8000043CCF81830DCF8143023F0FF03CCF888
:1031080014306B69CCF81430DCF81C00EB6900EA69
:103118000A0ACCF81CA0286A43EA0003CCF81C3041
:10312800DCF828306B6ACCF828B0CCF828302DD8D9
:10313800194B53F82130BF1AAA6A03FB07F702FBA1
:1031480003F3EA6A073747EA0347DCF82C3003F051
:10315800E023CCF82C30CCF82C70DCF830306FF34E
:103168000A03CCF83030CCF83020012259F8063068
:10317800134349F806300023C9F82420184688F874
:10318800A12088F8A03003B0BDE8F08F0123D2E772
:1031980002207047F8F8FFFFD854000838B5104CE3
:1031A800E36813F0040FE36805D103F00703181A66
:1031B80018BF012038BD23F007030343E360FEF77F
:1031C800BBFD054605E0FEF7B7FD401BB0F57A7F6D
:1031D80004D863689B04F6D5002038BD012038BDAB
:1031E80000480258002800F0E781F8B50368044653
:1031F800D9072FD5A4490A69896A02F03802102A2A
:1032080000F00881182A00F000816368B3F5803F58
:1032180000F02B81002B00F06881B3F5A02F9A4BAA
:103228001A6800F0868222F480321A601A6822F442
:1032380080221A60FEF780FD934E054606E0FEF7F1
:103248007BFD401BB0F57A7F00F24D8133689B030C
:10325800F5D523689D0700F18A80D90633D58A4AB7
:103268001369926A03F03803082B00F0E380182BE7
:1032780000F0DB80E369844D002B00F06F812B6840
:1032880043F080032B60FEF757FD064605E0FEF786
:1032980053FD801B022800F226812B68DB05F6D53A
:1032A800FEF762FD41F20303226A984200F2678248
:1032B8006B68202A23F0F8430CBF43F0804343EAAD
:1032C80082636B6023681D0716D563696E4D002BFA
:1032D80000F022816B6F43F001036B67FEF72CFD52
:1032E800064605E0FEF728FD801B022800F2FB8059
:1032F8006B6F9807F6D523689A0616D5A369624DB1
:10330800002B00F01A812B6843F480532B60FEF7E2
:1033180013FD064605E0FEF70FFD801B022800F2AC
:10332800E2802B689F04F6D52368590700F1A38033
:10333800636AD3B1544D2A6902F03802182A00F0A2
:10334800AB81022B2B6823F080732B6000F03F8148
:10335800FEF7F2FC044605E0FEF7EEFC001B02282F
:1033680000F2C1802B689B01F6D40020F8BD464AC4
:103378001369926A13F038032DD1434BE2681B6836
:10338800590701D5002A4ED03F4D2B6823F0190369
:1033980013432B60FEF7D0FC064605E0FEF7CCFC95
:1033A800801B022800F29F802B685B07F6D5FEF78A
:1033B800DBFC41F20303226998426B6800F2F58056
:1033C80023F47C33402A0CBF43F4003343EA02332E
:1033D8006B60236841E7182B00F0E3802A4DE26810
:1033E8002B68002A00F0CC8023F0190313432B60CC
:1033F800FEF7A2FC064604E0FEF79EFC801B0228AE
:1034080071D82B685F07F7D5D1E701F003010229CE
:103418007FF4FBAE1C4A126892037FF51BAF62680B
:10342800002A7FF417AF0120F8BD02F00302012A39
:103438007FF420AF144B1B68DA0502D5E369802BB3
:10344800F1D1FEF791FC41F20303226A984200F29F
:10345800B580202A00F0A1810B494B6823F0F8437E
:1034680043EA82634B6023682DE7074A136843F4F5
:1034780080331360DEE6054D2B6843F480732B60C0
:10348800FEF75AFC064608E0004402580048025875
:10349800FEF752FC801B642825D82B68DA05F7D57F
:1034A800A368012B00F07381002B00F04F81052BDE
:1034B800A44B1A6F00F07A8122F001021A671A6F82
:1034C80022F004021A67FEF737FC9E4E41F2883755
:1034D800054604E0FEF730FC401BB84203D8336FC2
:1034E8009B07F7D524E70320F8BD964D2B6823F4F6
:1034F80080332B602B6823F480232B60FEF71CFCA1
:10350800064605E0FEF718FC801BB0F57A7FEAD87E
:103518002B689F03F6D49CE66B6F23F001036B675F
:10352800FEF70AFC064604E0FEF706FC801B0228AC
:10353800D9D86B6F9907F7D4DDE62B6823F480534D
:103548002B60FEF7F9FB064604E0FEF7F5FB801B4F
:103558000228C8D82B689804F7D4E5E62B6823F02E
:1035680080032B60FEF7E8FB064604E0FEF7E4FB69
:10357800801B0228B7D82B68DF05F7D42368A2E69A
:1035880023F001032B60FEF7D7FB064604E0FEF7A5
:10359800D3FB801B0228A6D82B685807F7D42368CA
:1035A8005BE690077FF41AAFE7E623F0FE4343EAB1
:1035B80002636B60236850E6012070476149CB685D
:1035C80023F07C5343EA0263CB6023687BE6FEF773
:1035D800B3FB064604E0FEF7AFFB801B022882D847
:1035E8002B689901F7D4A96A574BA26A0B40134379
:1035F800E26A43EA0213AB62216BD4E90D32013966
:10360800013B013AC1F308015B0212049BB202F4C8
:10361800FE021343E26B013A0B43120602F0FE422C
:1036280013432B63EB6A23F00103EB626B6BA26C11
:103638006FF3CF0343EAC2036B63EB6A226C23F098
:103648000C031343EB62EB6A626C23F0020313432F
:10365800EB62EB6A43F48033EB62EB6A43F40033CA
:10366800EB62EB6A43F48023EB62EB6A43F00103FD
:10367800EB622B6843F080732B60FEF75DFB314DE6
:10368800044605E0FEF758FB001B02283FF62BAF67
:103698002B689A01F6D568E6012BAA6A286B3FF4D5
:1036A800C2AE02F00303A16A8B427FF4BCAEC2F340
:1036B8000512E36A9A427FF4B6AE236BC0F30802A0
:1036C800013B9A427FF4AFAE636BC0F34622013BE5
:1036D8009A427FF4A8AEA36BC0F30642013B9A421C
:1036E8007FF4A1AEE36BC0F30660013B98427FF420
:1036F8009AAE6B6BA26CC3F3CC039A423FF435AE1F
:10370800104AD36A23F00103D362FEF715FB05467E
:10371800FEF712FBA842FBD00A4AA16C536B6FF369
:10372800CF0343EAC1035363D36A43F00103D3626F
:103738001BE642F480221A601A6842F480321A604A
:1037480078E500BF004402580CFCFFFF1B4D41F216
:1037580088372B6F23F001032B672B6F23F00403AB
:103768002B67FEF7E9FA064605E0FEF7E5FA801B47
:10377800B8423FF6B8AE2B6F9807F6D4D8E5EB6899
:1037880023F07C5343EA0263EB6023689BE50B4A12
:10379800136F43F00103136795E6084A536823F053
:1037A800F84343F08043536023688CE542F00402F9
:1037B8001A671A6F42F001021A6784E60044025839
:1037C8002DE9F041504C236903F03803102B52D0F7
:1037D800182B0BD0002B51D123689A0651D523689A
:1037E8004A48C3F3C103D840BDE8F081A56AA36A7B
:1037F800E76A13F47C7F666BC3F30510F4D0C6F355
:10380800CC0607F00107FCF7F9FD804607FB06F038
:10381800FCF7F4FD4FF06451FCF748FE05F0030394
:103828000546012B02D0022B4DD063B3206BC0F3A9
:103838000800FCF7E3FD4FF07E51FCF72FFD294609
:10384800FCF72CFD414604463148FCF7E3FE0146EF
:103858002046FCF72BFE04462B4B1B6BC3F3462379
:10386800581CFCF7CBFD01462046FCF7D3FEFCF7BD
:103878006DFFBDE8F0812748BDE8F0812648BDE826
:10388800F0812248B0E723689B062CD523681F489F
:10389800C3F3C103266BD840FCF7B0FD4146FCF7E3
:1038A800B9FE0446C6F30800FCF7A8FD4FF07E51A8
:1038B800FCF7F4FC2946FCF7F1FC01462046FCF72E
:1038C800F5FD0446C8E7206BC0F30800FCF796FD39
:1038D8004FF07E51FCF7E2FC2946FCF7DFFC41463D
:1038E80004460E48B1E7206BC0F30800FCF786FDDC
:1038F8004FF07E51FCF7D2FC2946FCF7CFFC41463D
:1039080004460748A1E700BF004402580090D003CE
:103918000024744A40787D0100093D0020BCBE4B5C
:103928000024744C002800F00E818D4A136803F0BF
:103938000F038B422DE9F04104460D460CD2136863
:1039480023F00F030B431360136803F00F038B423C
:1039580002D00120BDE8F081236858070BD58149C2
:1039680020698A6902F07002904204D98A6922F0BB
:10397800700202438A6119070BD57A496069CA69DE
:1039880002F07002904204D9CA6922F07002024320
:10399800CA61DA060BD57349A069CA6902F4E06204
:1039A800904204D9CA6922F4E0620243CA619F06C0
:1039B8000BD56C49E0690A6A02F07002904204D99A
:1039C8000A6A22F0700202430A629E0703F00102AB
:1039D80040F1AB80634EE068B16901F00F018842A5
:1039E80004D9B16921F00F010143B161002A30D037
:1039F8005C4AA168936923F470630B43936161681F
:103A08001368022900F0A180032900F09880012999
:103A180000F0A1805F079CD5524E41F28838336987
:103A280023F007030B433361FEF786F9074605E0E9
:103A3800FEF782F9C01B404500F28B80336962684B
:103A480003F03803B3EBC20FF2D123689E0706D503
:103A5800E06844498A6902F00F02904269D34049FC
:103A68000A6802F00F02AA420AD90A6822F00F0275
:103A78002A430A600A6802F00F02AA427FF469AF7B
:103A880058070BD5374920698A6902F070029042BD
:103A980004D28A6922F0700202438A6119070BD5A1
:103AA80030496069CA6902F07002904204D2CA695A
:103AB80022F070020243CA61DA060BD52949A069CF
:103AC800CA6902F4E062904204D2CA6922F4E06250
:103AD8000243CA619B060BD5224AE169136A03F0C7
:103AE8007003994204D2136A23F070030B431362E4
:103AF800FFF766FE1B4A03461B4891699269C1F3AA
:103B080003211A4D02F00F02194C415C825C01F04E
:103B18001F01184802F01F02CB4000682B60D340F9
:103B28002360BDE8F041FEF7A5B8002A7FF460AF36
:103B380095E78A6922F00F0202438A618FE79A01AA
:103B48003FF56AAF05E70120704798033FF564AF7A
:103B5800FFE60320FEE6DB053FF55EAFF9E600BFB2
:103B68000020005200440258B85400080C000024F9
:103B78000800002414000024F8B5364C06460F4609
:103B8800236823F080632360FEF7D6F8054604E037
:103B9800FEF7D2F8401B022856D823681A01F7D43A
:103BA800A36A326823F47C3343EA0233A362D6E97A
:103BB8000232013B013A5B0212049BB202F4FE029C
:103BC80013437268013AC2F3080213433269013A97
:103BD800120602F0FE421343A363E36A726923F0FC
:103BE800C0031343E362E36AB26923F0200313437B
:103BF800E362E36A23F01003E362E36BF2696FF3B5
:103C0800CF0343EAC203E363E36A43F01003E362CA
:103C1800E36ADFB1012F0CBF43F4801343F40013B0
:103C2800E3620C4C236843F080632360FEF784F85A
:103C3800054604E0FEF780F8401B022804D82368F4
:103C48001B01F7D50020F8BD0320F8BD43F400237D
:103C5800E362E6E700440258F8B5364C06460F46DC
:103C6800236823F080532360FEF766F8054604E0D6
:103C7800FEF762F8401B022856D823689A00F7D44A
:103C8800A36A326823F07C7343EA0253A362D6E93D
:103C98000232013B013A5B0212049BB202F4FE02BB
:103CA80013437268013AC2F3080213433269013AB6
:103CB800120602F0FE4213432364E36A726923F496
:103CC80040631343E362E36AB26923F40073134366
:103CD800E362E36A23F48073E362636CF2696FF36F
:103CE800CF0343EAC2036364E36A43F48073E36285
:103CF800E36ADFB1012F0CBF43F4000343F0807384
:103D0800E3620C4C236843F080532360FEF714F8F9
:103D1800054604E0FEF710F8401B022804D8236883
:103D28009B00F7D50020F8BD0320F8BD43F48003BD
:103D3800E362E6E7004402582DE9F843D0E900328F
:103D480004461D0103F0006625D5816EB1F5001FFC
:103D580000F0398600F2DD86002900F00886B1F50A
:103D6800801F40F0DA86AF49896A01F00301032910
:103D780000F0D38602210830FFF7FEFED4E90032B6
:103D8800002840F02487A16EA64D0026286D20F457
:103D9800401001432965D80511D5A16D04290DD816
:103DA80001A050F821F000BF3F4600084D49000827
:103DB8008549000849460008494600080126354655
:103DC800990524D5E16D802900F08F8500F2C08621
:103DD800002900F07485402940F0C1869149896A1C
:103DE80001F00301032900F0BA86002104F108005C
:103DF800FFF7C2FE0546D4E90032002D40F0678582
:103E0800884FE06D396D21F4E071014339655F0534
:103E180028D5D4F8A810B1F5800F00F0E18500F29C
:103E2800A286002900F05685B1F5001F40F0A38650
:103E38007C49896A01F00301032900F09C8600216E
:103E480004F10800FFF798FE0546D4E90032002D7A
:103E580040F04885734FD4F8A800B96D21F460018B
:103E68000143B965180528D5D4F8AC10B1F1007F25
:103E780000F0948500F25486002900F0C285B1F163
:103E8800807F40F055866749896A01F0030103295C
:103E980000F04E86002104F10800FFF76DFE05468C
:103EA800D4E90032002D40F08B855E4FD4F8AC0089
:103EB800B96D21F0E0610143B965990118D5E16C4C
:103EC800202900F08A8400F25A8639B1102940F07E
:103ED80059865448C16A41F40031C162002D40F04E
:103EE8000B84504FE06CF96C21F030010143F96408
:103EF800DF0426D5216EB1F5005F00F0078500F2DA
:103F08001B86002900F01785B1F5805F40F01C86FC
:103F18004449896A01F00301032900F0158600214C
:103F280004F10800FFF728FE0546D4E90032002D09
:103F380040F0FE843B4F206E396D21F4E04101438F
:103F48003965980424D5616EB1F5003F00F03284DC
:103F580000F2B58591B1B1F5803F40F0BA8531499D
:103F6800896A01F00301032900F0B385012104F1F6
:103F78000800FFF701FE0546D4E90032002D40F0A5
:103F8800EC83284F606E396D21F4E02101433965D7
:103F9800590426D5D4F8B010B1F1005F00F0F883C9
:103FA80000F2718591B1B1F1805F40F076851D49CD
:103FB800896A01F00301032900F06F85012104F1EA
:103FC8000800FFF7D9FD0546D4E90032002D40F07E
:103FD800BA83144FD4F8B000B96D21F0E041014321
:103FE800B9651F040DD5216FB1F1805F00F0A38280
:103FF800B1F1005F00F0D085002900F0A182012610
:104008003546D80119D5A16C032900F2E98501A02C
:1040180050F821F03B400008314000087B48000878
:104028003B400008004402585348C16A41F400313B
:10403800C162002D00F068832E46590200F1B98252
:10404800DF0759D5E16F282954D801A050F821F08D
:1040580083450008FD400008FD400008FD400008B9
:10406800FD400008FD400008FD400008FD40000834
:1040780065450008FD400008FD400008FD400008B7
:10408800FD400008FD400008FD400008FD40000814
:10409800694A0008FD400008FD400008FD4000088E
:1040A800FD400008FD400008FD400008FD400008F4
:1040B80083450008FD400008FD400008FD40000859
:1040C800FD400008FD400008FD400008FD400008D4
:1040D80083450008FD400008FD400008FD40000839
:1040E800FD400008FD400008FD400008FD400008B4
:1040F8008345000801263546980726D5A16F05296E
:1041080000F2618501A050F821F000BF4B41000882
:104118002D410008434A00084B4100084B41000864
:104128004B4100081449896A01F00301032900F092
:104138004A85012104F10800FFF71EFD0546D4E970
:104148000032002D00F0EC822E46590729D5D4F80C
:104158009410052900F2338501A050F821F000BF22
:10416800A3410008854100081D4A0008A341000832
:10417800A3410008A341000800440258B249896AD3
:1041880001F00301032900F01A85012104F1080058
:10419800FFF7F2FC0546D4E90032002D00F0C88292
:1041A8002E469F0626D5D4F89010B1F1005F00F096
:1041B800738300F2928491B1B1F1805F40F09784EB
:1041C800A149896A01F00301032900F090840021C4
:1041D80004F10800FFF7D0FC0546D4E90032002DB1
:1041E80040F0B782984FD4F89000796D21F0E04103
:1041F80001437965580626D5D4F89C10B1F5006FAF
:1042080000F0B48200F24D8491B1B1F5806F40F0B6
:1042180052848D49896A01F00301032900F04B8417
:10422800002104F10800FFF7A7FC0546D4E9003295
:10423800002D40F08C82844FD4F89C00B96D21F495
:10424800E0510143B965190626D5D4F8A010B1F597
:10425800804F00F0FB8200F24E8491B1B1F5005F0F
:1042680040F053847849896A01F00301032900F07A
:104278004C84002104F10800FFF77EFC0546D4E9D0
:104288000032002D40F067826F4FD4F8A000B96D5E
:1042980021F460410143B9651F070BD5D4F88400A8
:1042A800B0F5805F00F0E881674F796D21F44051E7
:1042B80001437965D8060BD5D4F89800B0F5807F0E
:1042C80000F0EE81604FB96D21F440710143B9658A
:1042D800190324D5D4F8A410B1F5803F00F09182D9
:1042E800B1F5003F10D0002940F035815648806A6A
:1042F80000F00300032800F02E8104F10800FFF706
:104308003BFC0546D4E90032002D40F01A824E4F9E
:10431800D4F8A400B96D21F440310143B9655F03B5
:104328000FD5D4F88810B1F5001F00F07C82B1F5E4
:10433800401F00F03281B1F5801F00F0298101266D
:104348003546D80320D5216D002900F0CB81B1F581
:10435800803F40F0ED803C49896A01F00301032960
:1043680000F0E680022104F10800FFF705FC05468D
:10437800D4E90032002D40F0BD81334F206DF96C37
:1043880021F480310143F964990010D52E49896AD6
:1043980001F00301032900F06681022104F12800DD
:1043A800FFF75AFC0028D4E9003218BF01269F0302
:1043B8000ED5D4F88010B1F5807F00F0858140F2E9
:1043C800CE8121F48070B0F5007F00F08281012653
:1043D800D80206D51C48656F016D21F000412943BC
:1043E8000165D90007D51848D4F8B850016921F4F7
:1043F8008041294301619F0206D51348E56E016D8E
:1044080021F08071294301655D0009D50E490869CD
:1044180020F4004008610869D4F8BC5028430861BA
:10442800002B06DA0848656DC16C21F0405129431C
:10443800C16418020BD50449D4F88C004B6D23F4E1
:104448004003034302E000BF004402584B65D10714
:104458000FD5AB4B9B6A03F00303032B00F00181DC
:10446800002104F10800FFF787FB0028626818BFE5
:10447800032693070FD5A24B9B6A03F00303032B74
:1044880000F0F380012104F10800FFF775FB002814
:10449800626818BF032657070FD5994B9B6A03F02C
:1044A8000303032B00F0DB80022104F10800FFF76F
:1044B80063FB0028626818BF032615070FD5904BC9
:1044C8009B6A03F00303032B00F0C780002104F16B
:1044D8002800FFF7C1FB0028626818BF0326D00632
:1044E8001FD5874B9B6A03F00303032B00F0BF80A3
:1044F800012104F12800FFF7AFFB626888B192063A
:104508000CD503267E4B9B6A03F00303032B05D0CF
:10451800022104F12800FFF79FFB20B10120BDE82C
:10452800F8839306EED4301E18BF0120BDE8F88347
:104538000126354628E77248C16A41F40031C16254
:10454800002D40F0E9806E4F206F396D21F0405109
:104558000143396555E501263546E0E66849896A2B
:1045680001F0030103293FF4C5AD012104F108005E
:10457800FFF702FB0546D4E90032002D40F0E58044
:104588005F4FE06F796D21F0380101437965B3E53C
:104598005B48C16A41F40031C162002D40F0BE8021
:1045A800574FD4F88800796D21F44011014379659B
:1045B800C7E6544F3B6843F480733B60FDF7BCFB90
:1045C800804606E0FDF7B8FBA0EB0800642800F27F
:1045D800DD823B68DA05F5D5002D40F0D882484ADF
:1045E800D4F8B430116F594011F4407F0BD0116FDB
:1045F800106F21F4407140F480301067106F20F480
:10460800803010671167B3F5807F00F0ED8203F406
:104618004072B2F5407F00F0FB8239490A6922F402
:104628007C520A613648C3F30B01076F3943D4E95A
:104638000032016704E53248C16A41F40031C162C1
:104648003546002D40F090812D4FA06D396D21F039
:10465800070101433965FFF7B3BB01263FE7012690
:104668002BE7012605E70126A1E6012613E79106B7
:104678007FF554AF012645E72149896A01F0030116
:10468800032900F0A782022104F12800FFF7E4FAC9
:1046980000282368D4F8840018BF0126626803E65E
:1046A8001749896A01F00301032900F09682022163
:1046B80004F12800FFF7D0FA00282368D4F89800FE
:1046C80018BF01266268FDE50D4FF86A40F4003016
:1046D800F862002D48D10A4D686D20F440700143FE
:1046E800696575E60648C16A41F40031C162002D6A
:1046F8003FF443AE2E4647E62E46FFF7F9BB00BF10
:104708000044025800480258C14FA06CF96C21F0CF
:1047180003010143F96490E42E4672E42E4610E644
:10472800BB4FA06F796D21F00701014379650CE556
:10473800B74FD4F89400B96D21F007010143B9656A
:104748002FE52E46EBE52E464BE42E46D4E42E46C6
:1047580079E52E464EE52E469EE52E4618E40029BC
:104768007FF435AE002DB6D02E4631E6A849896AC9
:1047780001F00301032900F09E81022104F12800C1
:10478800FFF76AFA0546D4E90032002DDFD152E579
:104798009F49896A01F00301032900F07E81012104
:1047A80004F12800FFF758FA0546D4E90032002D35
:1047B800C9D10EE49649896A01F00301032900F082
:1047C8008881012104F12800FFF746FA0546D4E95B
:1047D8000032002DC1D1FFF7D4BB8D49896A01F0A1
:1047E8000301032900F0CE81022104F10800FFF73C
:1047F800C3F90546D4E90032002D7FF47DAFFFF7F9
:1048080070BB8349896A01F0030103293FF4A3AE11
:10481800022104F12800FFF71FFA0546D4E9003207
:10482800002D8ED173E57A49896A01F003010329C5
:104838003FF485AD012104F12800FFF70DFA054684
:10484800D4E90032002D7FF469AFA9E67049896A7E
:1048580001F00301032900F05881022104F1280026
:10486800FFF7FAF90546D4E90032002D7FF473AF5B
:104878000AE56749896A01F00301032900F0B0815C
:10488800022104F10800FFF777F90546D4E9003260
:10489800002D7FF4D1AB37E75D49896A01F0030148
:1048A800032900F02481022104F12800FFF7D4F93C
:1048B8000546D4E90032002D7FF44BAF92E454480A
:1048C800C16A41F40031C162002D3FF499AA2E4615
:1048D800FFF79DBA4E48C16A41F40031C162002D0C
:1048E8003FF4B8AA2E46FFF7BDBA4949896A01F0D4
:1048F8000301032900F03381002104F12800FFF7A8
:10490800ABF90546D4E90032FFF777BA4049896A1E
:1049180001F00301032900F01781002104F12800A8
:10492800FFF79AF90546D4E90032002D3FF402ABAF
:104938002E46FFF706BB3648C16A41F40031C16212
:10494800FFF7F5BA3249896A01F0030103293FF4F8
:1049580035AA002104F10800FFF70EF90546D4E94D
:104968000032002D3FF470AE2E46FFF729BA284DCD
:10497800E86A40F40030E862FFF706BA2449896A19
:1049880001F0030103293FF419AA002104F12800CA
:10499800FFF762F90546D4E9003252E61C49896AF4
:1049A80001F00301032900F0C380002104F128006D
:1049B800FFF752F90546D4E90032002D3FF475AAF5
:1049C8002E46FFF77ABA1249896A01F003010329D2
:1049D80000F0A38002212830FFF73EF9FFF7CEB997
:1049E8000B49896A01F00301032900F0C480002102
:1049F80004F12800FFF730F90546D4E90032FFF743
:104A080026BA0348C16A41F40031C162FFF74ABAC5
:104A1800004402588649896A01F00301032900F01D
:104A2800CE80012104F12800FFF716F90546D4E9E4
:104A38000032002D7FF4B4AB7AE67D49896A01F033
:104A48000301032900F0BF80012104F12800FFF7CA
:104A580003F90546D4E90032002D7FF475AB5FE613
:104A68007349896A01F0030103293FF443AB01212B
:104A780004F12800FFF7F0F80546D4E90032002DCC
:104A88007FF463AE7CE521F08050B0F1804F3FF4B5
:104A98009DAAB1F1405F3FF499AA01263546FFF778
:104AA800A0BA21F48060B0F5805F3FF4C1ABB1F5E6
:104AB800406F3FF4BDAB01263546FFF7C4BB21F478
:104AC8008030B0F5802F3FF459AAB1F5403F3FF44C
:104AD80055AA01263546FFF75BBA21F08050B0F1A0
:104AE800804F3FF47CABB1F1405F3FF478AB0126D7
:104AF8003546FFF77FBB21F40050B0F5004F3FF477
:104B0800C0ABB1F5C04F3FF4BCAB01263546FFF74B
:104B1800C3BBB1F5401F3FF437A90126FFF73BB9E6
:104B2800B1F1407F3FF4BEA9B1F1806F3FF4BAA95B
:104B380001263546FFF7C1B9B1F5405F3FF4F7A943
:104B4800B1F5804F3FF4F3A901263546FFF7F9B9CF
:104B5800C0293FF452A9B1F5807F3FF44EA9012640
:104B68003546FFF754B9B1F5C00F3FF470A9B1F558
:104B7800000F3FF46CA901263546FFF773B93029B9
:104B88003FF4ACA901263546FFF7B2B903252E46F6
:104B9800D4E90032FFF754BA2549896A01F00301C4
:104BA80003293FF42CAA012104F10800FEF7E4FFD1
:104BB8000546D4E90032002D7FF4AEADC3E40126EA
:104BC8003546FFF7EEBA01263546FFF7BEBA03268B
:104BD800FFF7E1B80126FFF767BB0126FFF772BBB5
:104BE80001263546FFF729BAFDF7A6F8DFF8408019
:104BF800074641F2883904E0FDF79EF8C01B484596
:104C080010D8D8F870309B07F6D5D4F8B430FEE445
:104C18000748084A016902EA131221F47C510A4341
:104C28000261FFE40326D4E900323546FFF708BAEB
:104C380000440258CFFFFF0018B338B590F82C3065
:104C480004460D4603F0FF02B3B12146022384F85F
:104C58002C3051F8040B00F019F8626829462068D6
:104C680000F04AF8084A01210020136843F0004385
:104C7800136084F82C1038BD80F82D20FCF796FEC0
:104C8800E3E70120704700BF004000522DE9F041E2
:104C9800D1E9073ED1E900824F6A43EA0E03D1E920
:104CA80002C6D1E904548969B8F1000F0FD13B431A
:104CB8001343026843EA0C036FF30E0233432B439A
:104CC80023430B43134303600020BDE8F08142EA0D
:104CD8000C023B4332432A4322430A43016821F42E
:104CE800F8410B43036043686FF30E0313434360BB
:104CF8000020BDE8F08100BFF0B5CC684B69013CED
:104D08008D688F69013B4FEA043E4C680E68013D8F
:104D1800013C1B052D02013E4FEA041C0C69791E5B
:104D2800013C0906240472B94EEA0303826833433E
:104D380002F0704243EA0C032B4323430B43134313
:104D480083600020F0BD4EEA030E4CEA0503084AD2
:104D5800334323430B4381680A404EEA02028260D0
:104D6800C26802F070421343C3600020F0BD00BF68
:104D7800FF0F0FFF2DE9F0470C6894FAA4F2002A00
:104D880068D0B2FA82F234FA02F363D04FF0010C21
:104D98006FEA040E0EE0C368334043EA0903C360B8
:104DA800036807FB05F533402B430360013234FAEF
:104DB80002F34FD00CFA02F3234003FB03F5F5D0BE
:104DC8004F6805EB4506D1F8109007F1FF38F64318
:104DD80009FB05F9B8F1010FDDD8D0F808A0022FBA
:104DE800D1F808800AEA060A08FB05F848EA0A0822
:104DF800C0F80880D1F80C8008FB04FAD0F80480C9
:104E08000EEA080848EA0A08C0F804804FEA13289E
:104E1800D0F80CA008FB08F80AEA060A08FB08F80C
:104E28004AEA0909C0F80C90BAD1D1F81490FF2BBE
:104E3800C8EB081A09FB08F80FD805FB05F8036A40
:104E480009FB08F9C8EB081823EA080343EA090331
:104E58000362A5E70020BDE8F087436A23EA0A0356
:104E680043EA080343629BE7F0B42F4DB0F1804F4B
:104E78000368A0EB05058C680A88B5FA85F54FEA42
:104E8800551521D005BB294EB04234D006F58066B1
:104E9800B04230D006F57C46254F861BB842B6FA9C
:104EA80086F64FEA561632D0002E30D1214E224DCA
:104EB800A84218BFB0422FD005F58065A8422BD074
:104EC8000360C46282620FE04E6823F070033343CC
:104ED8000026CF6823F440733B430360C4628262B8
:104EE80005B90EB10B690363436943F00103F0BCD4
:104EF8004361002070474D6823F07003C9682B4355
:104F080023F440730B430360C4628262ECE723F02E
:104F180070034F683B43DCE7CD6823F440732B43B1
:104F28000360C4628262DDE70000014000040040C3
:104F3800000C0040004001400044014000230146AD
:104F48001A46184600F08EB8830730B546D0841844
:104F5800844604E003F8011B9D0704D09C46A44541
:104F68006346F7D130BD013A0244A2EB0C02032A92
:104F780029D9CCB204EB04240F2A04EB04442FD91A
:104F8800A2F1100C2CF00F0C03F11005AC44C3E98E
:104F98000044C3E9024410336345F8D112F00C0F02
:104FA80002F00F0E18D02EF0030C9C44AEF104054D
:104FB8001A4642F8044B6245FBD125F0030404333A
:104FC8000EF003022344002ACCD0C9B21A4403F8D5
:104FD800011B9342FBD130BD7246F4E70346C6E796
:104FE8009646E0E770B50F4B0F4DAB42A3EB0506B5
:104FF80007D0B610002455F8043B01349847A64260
:10500800F9D800F079F8094D094B5E1BAB424FEA1D
:10501800A60606D0002455F8043B01349847A6425A
:10502800F9D870BD00550008005500080055000863
:105038000855000838B5074D074C2C1BA41005D09F
:10504800013C55F8043D9847002CF9D1BDE838409B
:1050580000F058B80C55000808550008704700BF04
:10506800704700BF2DE9F8431B4D0646286898464F
:105078000F469146FFF7F2FF184B1C681CB32868CF
:1050880065681F2D22DC4EB96B1C0235636044F83D
:105098002570FFF7E5FF0020BDE8F88304EB8501E4
:1050A8000123C1F88890D4F88821AB401A43022E16
:1050B800C4F88821C1F80881E6D1D4F88C211A43B4
:1050C800C4F88C21E0E7064C1C60D8E7FFF7C8FF5E
:1050D8004FF0FF30E0E700BF18000024440400242C
:1050E800B4020024024B13B10248FFF727BF7047F0
:1050F800000000003D500008F8B500BFF8BC08BC2F
:105108009E467047F8B500BFF8BC08BC9E4670477D
:10511800C864000002000000000000000000000059
:105128000000000000000000000000000100000076
:10513800020000000300000004000000000000005E
:105148000500000000000000000000000000000052
:105158000600000000000000000000000000000041
:10516800070000008B022701555555550000000027
:105178007C595E57587A1610167A5358585F5377E9
:1051880036363636363636363636363636363636B7
:1051980036363636363636363636363636363636A7
:1051A8003636363636363636363636363636363697
:1051B800070000000C0000001100000016000000AD
:1051C800070000000C00000011000000160000009D
:1051D800070000000C00000011000000160000008D
:1051E800070000000C00000011000000160000007D
:1051F80005000000090000000E0000001400000077
:1052080005000000090000000E0000001400000066
:1052180005000000090000000E0000001400000056
:1052280005000000090000000E0000001400000046
:10523800040000000B000000100000001700000030
:10524800040000000B000000100000001700000020
:10525800040000000B000000100000001700000010
:10526800040000000B000000100000001700000000
:10527800060000000A0000000F00000015000000F2
:10528800060000000A0000000F00000015000000E2
:10529800060000000A0000000F00000015000000D2
:1052A800060000000A0000000F00000015000000C2
:1052B80000000000010000000200000003000000E0
:1052C80004000000050000000600000007000000C0
:1052D80008000000090000000A0000000B000000A0
:1052E8000C0000000D0000000E0000000F00000080
:1052F80001000000060000000B0000000000000094
:10530800050000000A0000000F0000000400000073
:10531800090000000E000000030000000800000063
:105328000D00000002000000070000000C00000053
:1053380005000000080000000B0000000E0000003F
:105348000100000004000000070000000A0000003F
:105358000D0000000000000003000000060000002F
:10536800090000000C0000000F000000020000000F
:1053780000000000070000000E000000050000000B
:105388000C000000030000000A00000001000000FB
:10539800080000000F000000060000000D000000DB
:1053A800040000000B0000000200000009000000DB
:1053B80078A46AD756B7C7E8DB702024EECEBDC103
:1053C800AF0F7CF52AC68747134630A8019546FDDE
:1053D800D8988069AFF7448BB15BFFFFBED75C8973
:1053E8002211906B937198FD8E4379A62108B449D8
:1053F80062251EF640B340C0515A5E26AAC7B6E9D8
:105408005D102FD65314440281E6A1D8C8FBD3E718
:10541800E6CDE121D60737C3870DD5F4ED145A45FB
:1054280005E9E3A9F8A3EFFCD9026F678A4C2A8D36
:105438004239FAFF81F6718722619D6D0C38E5FDCE
:1054480044EABEA4A9CFDE4B604BBBF670BCBFBE1E
:10545800C67E9B28FA27A1EA8530EFD4051D88046B
:1054680039D0D4D9E599DBE6F87CA21F6556ACC4DF
:10547800442229F497FF2A43A72394AB39A093FC2D
:10548800C3595B6592CC0C8F7DF4EFFFD15D8485A9
:105498004F7EA86FE0E62CFE144301A3A111084E2D
:1054A800827E53F735F23ABDBBD2D72A91D386EB29
:1054B80000000000010203040102030406070809B2
:1054C8000001020304050607080C101418203040D8
:1054D80004000000030000000200000002000000B9
:1054E80002000000010000000100000002000000AE
:0854F8009CB2FF7F01000000DF
:08550000ED500008ED08000861
:04550800C9080008C6
:10550C0001000000000000D00090D0030090D003F8
:0C551C000100000010000000B00200249C
:0400000508001C29AA
:00000001FF
